{"contracts/Dvoting.sol":{"Dvoting":{"abi":[{"inputs":[{"internalType":"uint256","name":"_votingDays","type":"uint256"}],"stateMutability":"nonpayable","type":"constructor"},{"inputs":[{"internalType":"uint256","name":"_candidateId","type":"uint256"}],"name":"getCandidate","outputs":[{"components":[{"internalType":"uint24","name":"votesCount","type":"uint24"},{"internalType":"string","name":"name","type":"string"}],"internalType":"struct Dvoting.candidate","name":"","type":"tuple"}],"stateMutability":"view","type":"function"},{"inputs":[],"name":"getCandidates","outputs":[{"components":[{"internalType":"uint24","name":"votesCount","type":"uint24"},{"internalType":"string","name":"name","type":"string"}],"internalType":"struct Dvoting.candidate[]","name":"","type":"tuple[]"}],"stateMutability":"view","type":"function"},{"inputs":[{"internalType":"address","name":"_voterAddress","type":"address"}],"name":"getVoter","outputs":[{"components":[{"internalType":"bool","name":"registered","type":"bool"},{"internalType":"bool","name":"voted","type":"bool"}],"internalType":"struct Dvoting.voter","name":"","type":"tuple"}],"stateMutability":"view","type":"function"},{"inputs":[],"name":"getVotingPeriod","outputs":[{"internalType":"uint256","name":"","type":"uint256"}],"stateMutability":"view","type":"function"},{"inputs":[],"name":"getWinnerCandidate","outputs":[{"internalType":"string","name":"","type":"string"}],"stateMutability":"view","type":"function"},{"inputs":[{"internalType":"address","name":"_voter","type":"address"}],"name":"permitToVote","outputs":[],"stateMutability":"nonpayable","type":"function"},{"inputs":[{"internalType":"uint256","name":"_candidateId","type":"uint256"}],"name":"vote","outputs":[],"stateMutability":"nonpayable","type":"function"}],"evm":{"bytecode":{"linkReferences":{},"object":"60a06040523480156200001157600080fd5b506040516200179438038062001794833981810160405281019062000037919062000497565b336000806101000a81548173ffffffffffffffffffffffffffffffffffffffff021916908373ffffffffffffffffffffffffffffffffffffffff1602179055506201518081620000889190620004f8565b4262000095919062000559565b6080818152505060016040518060400160405280600062ffffff1681526020016040518060400160405280600a81526020017f4177732052617979616e00000000000000000000000000000000000000000000815250815250908060018154018082558091505060019003906000526020600020906002020160009091909190915060008201518160000160006101000a81548162ffffff021916908362ffffff16021790555060208201518160010190805190602001906200015a929190620003a7565b50505060016040518060400160405280600062ffffff1681526020016040518060400160405280600d81526020017f4d61686d6f6f6420417461726900000000000000000000000000000000000000815250815250908060018154018082558091505060019003906000526020600020906002020160009091909190915060008201518160000160006101000a81548162ffffff021916908362ffffff16021790555060208201518160010190805190602001906200021b929190620003a7565b50505060016040518060400160405280600062ffffff1681526020016040518060400160405280600c81526020017f41777320416c204d617372690000000000000000000000000000000000000000815250815250908060018154018082558091505060019003906000526020600020906002020160009091909190915060008201518160000160006101000a81548162ffffff021916908362ffffff1602179055506020820151816001019080519060200190620002dc929190620003a7565b50505060016040518060400160405280600062ffffff1681526020016040518060400160405280600881526020017f4d72205768697465000000000000000000000000000000000000000000000000815250815250908060018154018082558091505060019003906000526020600020906002020160009091909190915060008201518160000160006101000a81548162ffffff021916908362ffffff16021790555060208201518160010190805190602001906200039d929190620003a7565b505050506200061b565b828054620003b590620005e5565b90600052602060002090601f016020900481019282620003d9576000855562000425565b82601f10620003f457805160ff191683800117855562000425565b8280016001018555821562000425579182015b828111156200042457825182559160200191906001019062000407565b5b50905062000434919062000438565b5090565b5b808211156200045357600081600090555060010162000439565b5090565b600080fd5b6000819050919050565b62000471816200045c565b81146200047d57600080fd5b50565b600081519050620004918162000466565b92915050565b600060208284031215620004b057620004af62000457565b5b6000620004c08482850162000480565b91505092915050565b7f4e487b7100000000000000000000000000000000000000000000000000000000600052601160045260246000fd5b600062000505826200045c565b915062000512836200045c565b9250817fffffffffffffffffffffffffffffffffffffffffffffffffffffffffffffffff04831182151516156200054e576200054d620004c9565b5b828202905092915050565b600062000566826200045c565b915062000573836200045c565b9250827fffffffffffffffffffffffffffffffffffffffffffffffffffffffffffffffff03821115620005ab57620005aa620004c9565b5b828201905092915050565b7f4e487b7100000000000000000000000000000000000000000000000000000000600052602260045260246000fd5b60006002820490506001821680620005fe57607f821691505b60208210811415620006155762000614620005b6565b5b50919050565b6080516111566200063e600039600081816106b6015261076a01526111566000f3fe608060405234801561001057600080fd5b506004361061007d5760003560e01c806335b8e8201161005b57806335b8e820146100da5780633ecc6a431461010a57806382d21f0214610128578063d4f50f98146101445761007d565b80630121b93f1461008257806306a49fce1461009e57806306f0d4f6146100bc575b600080fd5b61009c600480360381019061009791906109c0565b610174565b005b6100a6610352565b6040516100b39190610ba3565b60405180910390f35b6100c4610466565b6040516100d19190610c0f565b60405180910390f35b6100f460048036038101906100ef91906109c0565b6105c1565b6040516101019190610c6e565b60405180910390f35b6101126106b2565b60405161011f9190610c9f565b60405180910390f35b610142600480360381019061013d9190610d18565b6106da565b005b61015e60048036038101906101599190610d18565b6108b9565b60405161016b9190610d8f565b60405180910390f35b600260003373ffffffffffffffffffffffffffffffffffffffff1673ffffffffffffffffffffffffffffffffffffffff16815260200190815260200160002060000160009054906101000a900460ff16610203576040517f08c379a00000000000000000000000000000000000000000000000000000000081526004016101fa90610df6565b60405180910390fd5b600260003373ffffffffffffffffffffffffffffffffffffffff1673ffffffffffffffffffffffffffffffffffffffff16815260200190815260200160002060000160019054906101000a900460ff1615610293576040517f08c379a000000000000000000000000000000000000000000000000000000000815260040161028a90610e62565b60405180910390fd5b600181815481106102a7576102a6610e82565b5b9060005260206000209060020201600001600081819054906101000a900462ffffff16809291906102d790610ee0565b91906101000a81548162ffffff021916908362ffffff160217905550506001600260003373ffffffffffffffffffffffffffffffffffffffff1673ffffffffffffffffffffffffffffffffffffffff16815260200190815260200160002060000160016101000a81548160ff02191690831515021790555050565b60606001805480602002602001604051908101604052809291908181526020016000905b8282101561045d57838290600052602060002090600202016040518060400160405290816000820160009054906101000a900462ffffff1662ffffff1662ffffff1681526020016001820180546103cc90610f3b565b80601f01602080910402602001604051908101604052809291908181526020018280546103f890610f3b565b80156104455780601f1061041a57610100808354040283529160200191610445565b820191906000526020600020905b81548152906001019060200180831161042857829003601f168201915b50505050508152505081526020019060010190610376565b50505050905090565b6060600080600190505b60018054905081101561050c576001828154811061049157610490610e82565b5b906000526020600020906002020160000160009054906101000a900462ffffff1662ffffff16600182815481106104cb576104ca610e82565b5b906000526020600020906002020160000160009054906101000a900462ffffff1662ffffff1611156104fb578091505b8061050590610f6d565b9050610470565b506001818154811061052157610520610e82565b5b9060005260206000209060020201600101805461053d90610f3b565b80601f016020809104026020016040519081016040528092919081815260200182805461056990610f3b565b80156105b65780601f1061058b576101008083540402835291602001916105b6565b820191906000526020600020905b81548152906001019060200180831161059957829003601f168201915b505050505091505090565b6105c9610948565b600182815481106105dd576105dc610e82565b5b90600052602060002090600202016040518060400160405290816000820160009054906101000a900462ffffff1662ffffff1662ffffff16815260200160018201805461062990610f3b565b80601f016020809104026020016040519081016040528092919081815260200182805461065590610f3b565b80156106a25780601f10610677576101008083540402835291602001916106a2565b820191906000526020600020905b81548152906001019060200180831161068557829003601f168201915b5050505050815250509050919050565b60007f0000000000000000000000000000000000000000000000000000000000000000905090565b60008054906101000a900473ffffffffffffffffffffffffffffffffffffffff1673ffffffffffffffffffffffffffffffffffffffff163373ffffffffffffffffffffffffffffffffffffffff1614610768576040517f08c379a000000000000000000000000000000000000000000000000000000000815260040161075f90611028565b60405180910390fd5b7f00000000000000000000000000000000000000000000000000000000000000004211156107cb576040517f08c379a00000000000000000000000000000000000000000000000000000000081526004016107c290611094565b60405180910390fd5b600260008273ffffffffffffffffffffffffffffffffffffffff1673ffffffffffffffffffffffffffffffffffffffff16815260200190815260200160002060000160009054906101000a900460ff161561085b576040517f08c379a000000000000000000000000000000000000000000000000000000000815260040161085290611100565b60405180910390fd5b6001600260008373ffffffffffffffffffffffffffffffffffffffff1673ffffffffffffffffffffffffffffffffffffffff16815260200190815260200160002060000160006101000a81548160ff02191690831515021790555050565b6108c1610967565b600260008373ffffffffffffffffffffffffffffffffffffffff1673ffffffffffffffffffffffffffffffffffffffff1681526020019081526020016000206040518060400160405290816000820160009054906101000a900460ff161515151581526020016000820160019054906101000a900460ff1615151515815250509050919050565b6040518060400160405280600062ffffff168152602001606081525090565b60405180604001604052806000151581526020016000151581525090565b600080fd5b6000819050919050565b61099d8161098a565b81146109a857600080fd5b50565b6000813590506109ba81610994565b92915050565b6000602082840312156109d6576109d5610985565b5b60006109e4848285016109ab565b91505092915050565b600081519050919050565b600082825260208201905092915050565b6000819050602082019050919050565b600062ffffff82169050919050565b610a3181610a19565b82525050565b600081519050919050565b600082825260208201905092915050565b60005b83811015610a71578082015181840152602081019050610a56565b83811115610a80576000848401525b50505050565b6000601f19601f8301169050919050565b6000610aa282610a37565b610aac8185610a42565b9350610abc818560208601610a53565b610ac581610a86565b840191505092915050565b6000604083016000830151610ae86000860182610a28565b5060208301518482036020860152610b008282610a97565b9150508091505092915050565b6000610b198383610ad0565b905092915050565b6000602082019050919050565b6000610b39826109ed565b610b4381856109f8565b935083602082028501610b5585610a09565b8060005b85811015610b915784840389528151610b728582610b0d565b9450610b7d83610b21565b925060208a01995050600181019050610b59565b50829750879550505050505092915050565b60006020820190508181036000830152610bbd8184610b2e565b905092915050565b600082825260208201905092915050565b6000610be182610a37565b610beb8185610bc5565b9350610bfb818560208601610a53565b610c0481610a86565b840191505092915050565b60006020820190508181036000830152610c298184610bd6565b905092915050565b6000604083016000830151610c496000860182610a28565b5060208301518482036020860152610c618282610a97565b9150508091505092915050565b60006020820190508181036000830152610c888184610c31565b905092915050565b610c998161098a565b82525050565b6000602082019050610cb46000830184610c90565b92915050565b600073ffffffffffffffffffffffffffffffffffffffff82169050919050565b6000610ce582610cba565b9050919050565b610cf581610cda565b8114610d0057600080fd5b50565b600081359050610d1281610cec565b92915050565b600060208284031215610d2e57610d2d610985565b5b6000610d3c84828501610d03565b91505092915050565b60008115159050919050565b610d5a81610d45565b82525050565b604082016000820151610d766000850182610d51565b506020820151610d896020850182610d51565b50505050565b6000604082019050610da46000830184610d60565b92915050565b7f596f7520417265204e6f7420416c6c6f77656420546f20566f74650000000000600082015250565b6000610de0601b83610bc5565b9150610deb82610daa565b602082019050919050565b60006020820190508181036000830152610e0f81610dd3565b9050919050565b7f596f7520416c726561647920566f746564000000000000000000000000000000600082015250565b6000610e4c601183610bc5565b9150610e5782610e16565b602082019050919050565b60006020820190508181036000830152610e7b81610e3f565b9050919050565b7f4e487b7100000000000000000000000000000000000000000000000000000000600052603260045260246000fd5b7f4e487b7100000000000000000000000000000000000000000000000000000000600052601160045260246000fd5b6000610eeb82610a19565b915062ffffff821415610f0157610f00610eb1565b5b600182019050919050565b7f4e487b7100000000000000000000000000000000000000000000000000000000600052602260045260246000fd5b60006002820490506001821680610f5357607f821691505b60208210811415610f6757610f66610f0c565b5b50919050565b6000610f788261098a565b91507fffffffffffffffffffffffffffffffffffffffffffffffffffffffffffffffff821415610fab57610faa610eb1565b5b600182019050919050565b7f4f6e6c7920546865204f776e657220497320416c6c6f77656420546f2050657260008201527f666f726d2054686973204f7065726174696f6e00000000000000000000000000602082015250565b6000611012603383610bc5565b915061101d82610fb6565b604082019050919050565b6000602082019050818103600083015261104181611005565b9050919050565b7f566f74696e6720506572696f6420486173204265656e20457863656564656400600082015250565b600061107e601f83610bc5565b915061108982611048565b602082019050919050565b600060208201905081810360008301526110ad81611071565b9050919050565b7f5573657220416c72656164792041646465640000000000000000000000000000600082015250565b60006110ea601283610bc5565b91506110f5826110b4565b602082019050919050565b60006020820190508181036000830152611119816110dd565b905091905056fea264697066735822122000acb3658f429cd3c252561b5b6dcc36a0ef70ac7c3ab6435972ba45aed3aab864736f6c63430008080033","opcodes":"PUSH1 0xA0 PUSH1 0x40 MSTORE CALLVALUE DUP1 ISZERO PUSH3 0x11 JUMPI PUSH1 0x0 DUP1 REVERT JUMPDEST POP PUSH1 0x40 MLOAD PUSH3 0x1794 CODESIZE SUB DUP1 PUSH3 0x1794 DUP4 CODECOPY DUP2 DUP2 ADD PUSH1 0x40 MSTORE DUP2 ADD SWAP1 PUSH3 0x37 SWAP2 SWAP1 PUSH3 0x497 JUMP JUMPDEST CALLER PUSH1 0x0 DUP1 PUSH2 0x100 EXP DUP2 SLOAD DUP2 PUSH20 0xFFFFFFFFFFFFFFFFFFFFFFFFFFFFFFFFFFFFFFFF MUL NOT AND SWAP1 DUP4 PUSH20 0xFFFFFFFFFFFFFFFFFFFFFFFFFFFFFFFFFFFFFFFF AND MUL OR SWAP1 SSTORE POP PUSH3 0x15180 DUP2 PUSH3 0x88 SWAP2 SWAP1 PUSH3 0x4F8 JUMP JUMPDEST TIMESTAMP PUSH3 0x95 SWAP2 SWAP1 PUSH3 0x559 JUMP JUMPDEST PUSH1 0x80 DUP2 DUP2 MSTORE POP POP PUSH1 0x1 PUSH1 0x40 MLOAD DUP1 PUSH1 0x40 ADD PUSH1 0x40 MSTORE DUP1 PUSH1 0x0 PUSH3 0xFFFFFF AND DUP2 MSTORE PUSH1 0x20 ADD PUSH1 0x40 MLOAD DUP1 PUSH1 0x40 ADD PUSH1 0x40 MSTORE DUP1 PUSH1 0xA DUP2 MSTORE PUSH1 0x20 ADD PUSH32 0x4177732052617979616E00000000000000000000000000000000000000000000 DUP2 MSTORE POP DUP2 MSTORE POP SWAP1 DUP1 PUSH1 0x1 DUP2 SLOAD ADD DUP1 DUP3 SSTORE DUP1 SWAP2 POP POP PUSH1 0x1 SWAP1 SUB SWAP1 PUSH1 0x0 MSTORE PUSH1 0x20 PUSH1 0x0 KECCAK256 SWAP1 PUSH1 0x2 MUL ADD PUSH1 0x0 SWAP1 SWAP2 SWAP1 SWAP2 SWAP1 SWAP2 POP PUSH1 0x0 DUP3 ADD MLOAD DUP2 PUSH1 0x0 ADD PUSH1 0x0 PUSH2 0x100 EXP DUP2 SLOAD DUP2 PUSH3 0xFFFFFF MUL NOT AND SWAP1 DUP4 PUSH3 0xFFFFFF AND MUL OR SWAP1 SSTORE POP PUSH1 0x20 DUP3 ADD MLOAD DUP2 PUSH1 0x1 ADD SWAP1 DUP1 MLOAD SWAP1 PUSH1 0x20 ADD SWAP1 PUSH3 0x15A SWAP3 SWAP2 SWAP1 PUSH3 0x3A7 JUMP JUMPDEST POP POP POP PUSH1 0x1 PUSH1 0x40 MLOAD DUP1 PUSH1 0x40 ADD PUSH1 0x40 MSTORE DUP1 PUSH1 0x0 PUSH3 0xFFFFFF AND DUP2 MSTORE PUSH1 0x20 ADD PUSH1 0x40 MLOAD DUP1 PUSH1 0x40 ADD PUSH1 0x40 MSTORE DUP1 PUSH1 0xD DUP2 MSTORE PUSH1 0x20 ADD PUSH32 0x4D61686D6F6F6420417461726900000000000000000000000000000000000000 DUP2 MSTORE POP DUP2 MSTORE POP SWAP1 DUP1 PUSH1 0x1 DUP2 SLOAD ADD DUP1 DUP3 SSTORE DUP1 SWAP2 POP POP PUSH1 0x1 SWAP1 SUB SWAP1 PUSH1 0x0 MSTORE PUSH1 0x20 PUSH1 0x0 KECCAK256 SWAP1 PUSH1 0x2 MUL ADD PUSH1 0x0 SWAP1 SWAP2 SWAP1 SWAP2 SWAP1 SWAP2 POP PUSH1 0x0 DUP3 ADD MLOAD DUP2 PUSH1 0x0 ADD PUSH1 0x0 PUSH2 0x100 EXP DUP2 SLOAD DUP2 PUSH3 0xFFFFFF MUL NOT AND SWAP1 DUP4 PUSH3 0xFFFFFF AND MUL OR SWAP1 SSTORE POP PUSH1 0x20 DUP3 ADD MLOAD DUP2 PUSH1 0x1 ADD SWAP1 DUP1 MLOAD SWAP1 PUSH1 0x20 ADD SWAP1 PUSH3 0x21B SWAP3 SWAP2 SWAP1 PUSH3 0x3A7 JUMP JUMPDEST POP POP POP PUSH1 0x1 PUSH1 0x40 MLOAD DUP1 PUSH1 0x40 ADD PUSH1 0x40 MSTORE DUP1 PUSH1 0x0 PUSH3 0xFFFFFF AND DUP2 MSTORE PUSH1 0x20 ADD PUSH1 0x40 MLOAD DUP1 PUSH1 0x40 ADD PUSH1 0x40 MSTORE DUP1 PUSH1 0xC DUP2 MSTORE PUSH1 0x20 ADD PUSH32 0x41777320416C204D617372690000000000000000000000000000000000000000 DUP2 MSTORE POP DUP2 MSTORE POP SWAP1 DUP1 PUSH1 0x1 DUP2 SLOAD ADD DUP1 DUP3 SSTORE DUP1 SWAP2 POP POP PUSH1 0x1 SWAP1 SUB SWAP1 PUSH1 0x0 MSTORE PUSH1 0x20 PUSH1 0x0 KECCAK256 SWAP1 PUSH1 0x2 MUL ADD PUSH1 0x0 SWAP1 SWAP2 SWAP1 SWAP2 SWAP1 SWAP2 POP PUSH1 0x0 DUP3 ADD MLOAD DUP2 PUSH1 0x0 ADD PUSH1 0x0 PUSH2 0x100 EXP DUP2 SLOAD DUP2 PUSH3 0xFFFFFF MUL NOT AND SWAP1 DUP4 PUSH3 0xFFFFFF AND MUL OR SWAP1 SSTORE POP PUSH1 0x20 DUP3 ADD MLOAD DUP2 PUSH1 0x1 ADD SWAP1 DUP1 MLOAD SWAP1 PUSH1 0x20 ADD SWAP1 PUSH3 0x2DC SWAP3 SWAP2 SWAP1 PUSH3 0x3A7 JUMP JUMPDEST POP POP POP PUSH1 0x1 PUSH1 0x40 MLOAD DUP1 PUSH1 0x40 ADD PUSH1 0x40 MSTORE DUP1 PUSH1 0x0 PUSH3 0xFFFFFF AND DUP2 MSTORE PUSH1 0x20 ADD PUSH1 0x40 MLOAD DUP1 PUSH1 0x40 ADD PUSH1 0x40 MSTORE DUP1 PUSH1 0x8 DUP2 MSTORE PUSH1 0x20 ADD PUSH32 0x4D72205768697465000000000000000000000000000000000000000000000000 DUP2 MSTORE POP DUP2 MSTORE POP SWAP1 DUP1 PUSH1 0x1 DUP2 SLOAD ADD DUP1 DUP3 SSTORE DUP1 SWAP2 POP POP PUSH1 0x1 SWAP1 SUB SWAP1 PUSH1 0x0 MSTORE PUSH1 0x20 PUSH1 0x0 KECCAK256 SWAP1 PUSH1 0x2 MUL ADD PUSH1 0x0 SWAP1 SWAP2 SWAP1 SWAP2 SWAP1 SWAP2 POP PUSH1 0x0 DUP3 ADD MLOAD DUP2 PUSH1 0x0 ADD PUSH1 0x0 PUSH2 0x100 EXP DUP2 SLOAD DUP2 PUSH3 0xFFFFFF MUL NOT AND SWAP1 DUP4 PUSH3 0xFFFFFF AND MUL OR SWAP1 SSTORE POP PUSH1 0x20 DUP3 ADD MLOAD DUP2 PUSH1 0x1 ADD SWAP1 DUP1 MLOAD SWAP1 PUSH1 0x20 ADD SWAP1 PUSH3 0x39D SWAP3 SWAP2 SWAP1 PUSH3 0x3A7 JUMP JUMPDEST POP POP POP POP PUSH3 0x61B JUMP JUMPDEST DUP3 DUP1 SLOAD PUSH3 0x3B5 SWAP1 PUSH3 0x5E5 JUMP JUMPDEST SWAP1 PUSH1 0x0 MSTORE PUSH1 0x20 PUSH1 0x0 KECCAK256 SWAP1 PUSH1 0x1F ADD PUSH1 0x20 SWAP1 DIV DUP2 ADD SWAP3 DUP3 PUSH3 0x3D9 JUMPI PUSH1 0x0 DUP6 SSTORE PUSH3 0x425 JUMP JUMPDEST DUP3 PUSH1 0x1F LT PUSH3 0x3F4 JUMPI DUP1 MLOAD PUSH1 0xFF NOT AND DUP4 DUP1 ADD OR DUP6 SSTORE PUSH3 0x425 JUMP JUMPDEST DUP3 DUP1 ADD PUSH1 0x1 ADD DUP6 SSTORE DUP3 ISZERO PUSH3 0x425 JUMPI SWAP2 DUP3 ADD JUMPDEST DUP3 DUP2 GT ISZERO PUSH3 0x424 JUMPI DUP3 MLOAD DUP3 SSTORE SWAP2 PUSH1 0x20 ADD SWAP2 SWAP1 PUSH1 0x1 ADD SWAP1 PUSH3 0x407 JUMP JUMPDEST JUMPDEST POP SWAP1 POP PUSH3 0x434 SWAP2 SWAP1 PUSH3 0x438 JUMP JUMPDEST POP SWAP1 JUMP JUMPDEST JUMPDEST DUP1 DUP3 GT ISZERO PUSH3 0x453 JUMPI PUSH1 0x0 DUP2 PUSH1 0x0 SWAP1 SSTORE POP PUSH1 0x1 ADD PUSH3 0x439 JUMP JUMPDEST POP SWAP1 JUMP JUMPDEST PUSH1 0x0 DUP1 REVERT JUMPDEST PUSH1 0x0 DUP2 SWAP1 POP SWAP2 SWAP1 POP JUMP JUMPDEST PUSH3 0x471 DUP2 PUSH3 0x45C JUMP JUMPDEST DUP2 EQ PUSH3 0x47D JUMPI PUSH1 0x0 DUP1 REVERT JUMPDEST POP JUMP JUMPDEST PUSH1 0x0 DUP2 MLOAD SWAP1 POP PUSH3 0x491 DUP2 PUSH3 0x466 JUMP JUMPDEST SWAP3 SWAP2 POP POP JUMP JUMPDEST PUSH1 0x0 PUSH1 0x20 DUP3 DUP5 SUB SLT ISZERO PUSH3 0x4B0 JUMPI PUSH3 0x4AF PUSH3 0x457 JUMP JUMPDEST JUMPDEST PUSH1 0x0 PUSH3 0x4C0 DUP5 DUP3 DUP6 ADD PUSH3 0x480 JUMP JUMPDEST SWAP2 POP POP SWAP3 SWAP2 POP POP JUMP JUMPDEST PUSH32 0x4E487B7100000000000000000000000000000000000000000000000000000000 PUSH1 0x0 MSTORE PUSH1 0x11 PUSH1 0x4 MSTORE PUSH1 0x24 PUSH1 0x0 REVERT JUMPDEST PUSH1 0x0 PUSH3 0x505 DUP3 PUSH3 0x45C JUMP JUMPDEST SWAP2 POP PUSH3 0x512 DUP4 PUSH3 0x45C JUMP JUMPDEST SWAP3 POP DUP2 PUSH32 0xFFFFFFFFFFFFFFFFFFFFFFFFFFFFFFFFFFFFFFFFFFFFFFFFFFFFFFFFFFFFFFFF DIV DUP4 GT DUP3 ISZERO ISZERO AND ISZERO PUSH3 0x54E JUMPI PUSH3 0x54D PUSH3 0x4C9 JUMP JUMPDEST JUMPDEST DUP3 DUP3 MUL SWAP1 POP SWAP3 SWAP2 POP POP JUMP JUMPDEST PUSH1 0x0 PUSH3 0x566 DUP3 PUSH3 0x45C JUMP JUMPDEST SWAP2 POP PUSH3 0x573 DUP4 PUSH3 0x45C JUMP JUMPDEST SWAP3 POP DUP3 PUSH32 0xFFFFFFFFFFFFFFFFFFFFFFFFFFFFFFFFFFFFFFFFFFFFFFFFFFFFFFFFFFFFFFFF SUB DUP3 GT ISZERO PUSH3 0x5AB JUMPI PUSH3 0x5AA PUSH3 0x4C9 JUMP JUMPDEST JUMPDEST DUP3 DUP3 ADD SWAP1 POP SWAP3 SWAP2 POP POP JUMP JUMPDEST PUSH32 0x4E487B7100000000000000000000000000000000000000000000000000000000 PUSH1 0x0 MSTORE PUSH1 0x22 PUSH1 0x4 MSTORE PUSH1 0x24 PUSH1 0x0 REVERT JUMPDEST PUSH1 0x0 PUSH1 0x2 DUP3 DIV SWAP1 POP PUSH1 0x1 DUP3 AND DUP1 PUSH3 0x5FE JUMPI PUSH1 0x7F DUP3 AND SWAP2 POP JUMPDEST PUSH1 0x20 DUP3 LT DUP2 EQ ISZERO PUSH3 0x615 JUMPI PUSH3 0x614 PUSH3 0x5B6 JUMP JUMPDEST JUMPDEST POP SWAP2 SWAP1 POP JUMP JUMPDEST PUSH1 0x80 MLOAD PUSH2 0x1156 PUSH3 0x63E PUSH1 0x0 CODECOPY PUSH1 0x0 DUP2 DUP2 PUSH2 0x6B6 ADD MSTORE PUSH2 0x76A ADD MSTORE PUSH2 0x1156 PUSH1 0x0 RETURN INVALID PUSH1 0x80 PUSH1 0x40 MSTORE CALLVALUE DUP1 ISZERO PUSH2 0x10 JUMPI PUSH1 0x0 DUP1 REVERT JUMPDEST POP PUSH1 0x4 CALLDATASIZE LT PUSH2 0x7D JUMPI PUSH1 0x0 CALLDATALOAD PUSH1 0xE0 SHR DUP1 PUSH4 0x35B8E820 GT PUSH2 0x5B JUMPI DUP1 PUSH4 0x35B8E820 EQ PUSH2 0xDA JUMPI DUP1 PUSH4 0x3ECC6A43 EQ PUSH2 0x10A JUMPI DUP1 PUSH4 0x82D21F02 EQ PUSH2 0x128 JUMPI DUP1 PUSH4 0xD4F50F98 EQ PUSH2 0x144 JUMPI PUSH2 0x7D JUMP JUMPDEST DUP1 PUSH4 0x121B93F EQ PUSH2 0x82 JUMPI DUP1 PUSH4 0x6A49FCE EQ PUSH2 0x9E JUMPI DUP1 PUSH4 0x6F0D4F6 EQ PUSH2 0xBC JUMPI JUMPDEST PUSH1 0x0 DUP1 REVERT JUMPDEST PUSH2 0x9C PUSH1 0x4 DUP1 CALLDATASIZE SUB DUP2 ADD SWAP1 PUSH2 0x97 SWAP2 SWAP1 PUSH2 0x9C0 JUMP JUMPDEST PUSH2 0x174 JUMP JUMPDEST STOP JUMPDEST PUSH2 0xA6 PUSH2 0x352 JUMP JUMPDEST PUSH1 0x40 MLOAD PUSH2 0xB3 SWAP2 SWAP1 PUSH2 0xBA3 JUMP JUMPDEST PUSH1 0x40 MLOAD DUP1 SWAP2 SUB SWAP1 RETURN JUMPDEST PUSH2 0xC4 PUSH2 0x466 JUMP JUMPDEST PUSH1 0x40 MLOAD PUSH2 0xD1 SWAP2 SWAP1 PUSH2 0xC0F JUMP JUMPDEST PUSH1 0x40 MLOAD DUP1 SWAP2 SUB SWAP1 RETURN JUMPDEST PUSH2 0xF4 PUSH1 0x4 DUP1 CALLDATASIZE SUB DUP2 ADD SWAP1 PUSH2 0xEF SWAP2 SWAP1 PUSH2 0x9C0 JUMP JUMPDEST PUSH2 0x5C1 JUMP JUMPDEST PUSH1 0x40 MLOAD PUSH2 0x101 SWAP2 SWAP1 PUSH2 0xC6E JUMP JUMPDEST PUSH1 0x40 MLOAD DUP1 SWAP2 SUB SWAP1 RETURN JUMPDEST PUSH2 0x112 PUSH2 0x6B2 JUMP JUMPDEST PUSH1 0x40 MLOAD PUSH2 0x11F SWAP2 SWAP1 PUSH2 0xC9F JUMP JUMPDEST PUSH1 0x40 MLOAD DUP1 SWAP2 SUB SWAP1 RETURN JUMPDEST PUSH2 0x142 PUSH1 0x4 DUP1 CALLDATASIZE SUB DUP2 ADD SWAP1 PUSH2 0x13D SWAP2 SWAP1 PUSH2 0xD18 JUMP JUMPDEST PUSH2 0x6DA JUMP JUMPDEST STOP JUMPDEST PUSH2 0x15E PUSH1 0x4 DUP1 CALLDATASIZE SUB DUP2 ADD SWAP1 PUSH2 0x159 SWAP2 SWAP1 PUSH2 0xD18 JUMP JUMPDEST PUSH2 0x8B9 JUMP JUMPDEST PUSH1 0x40 MLOAD PUSH2 0x16B SWAP2 SWAP1 PUSH2 0xD8F JUMP JUMPDEST PUSH1 0x40 MLOAD DUP1 SWAP2 SUB SWAP1 RETURN JUMPDEST PUSH1 0x2 PUSH1 0x0 CALLER PUSH20 0xFFFFFFFFFFFFFFFFFFFFFFFFFFFFFFFFFFFFFFFF AND PUSH20 0xFFFFFFFFFFFFFFFFFFFFFFFFFFFFFFFFFFFFFFFF AND DUP2 MSTORE PUSH1 0x20 ADD SWAP1 DUP2 MSTORE PUSH1 0x20 ADD PUSH1 0x0 KECCAK256 PUSH1 0x0 ADD PUSH1 0x0 SWAP1 SLOAD SWAP1 PUSH2 0x100 EXP SWAP1 DIV PUSH1 0xFF AND PUSH2 0x203 JUMPI PUSH1 0x40 MLOAD PUSH32 0x8C379A000000000000000000000000000000000000000000000000000000000 DUP2 MSTORE PUSH1 0x4 ADD PUSH2 0x1FA SWAP1 PUSH2 0xDF6 JUMP JUMPDEST PUSH1 0x40 MLOAD DUP1 SWAP2 SUB SWAP1 REVERT JUMPDEST PUSH1 0x2 PUSH1 0x0 CALLER PUSH20 0xFFFFFFFFFFFFFFFFFFFFFFFFFFFFFFFFFFFFFFFF AND PUSH20 0xFFFFFFFFFFFFFFFFFFFFFFFFFFFFFFFFFFFFFFFF AND DUP2 MSTORE PUSH1 0x20 ADD SWAP1 DUP2 MSTORE PUSH1 0x20 ADD PUSH1 0x0 KECCAK256 PUSH1 0x0 ADD PUSH1 0x1 SWAP1 SLOAD SWAP1 PUSH2 0x100 EXP SWAP1 DIV PUSH1 0xFF AND ISZERO PUSH2 0x293 JUMPI PUSH1 0x40 MLOAD PUSH32 0x8C379A000000000000000000000000000000000000000000000000000000000 DUP2 MSTORE PUSH1 0x4 ADD PUSH2 0x28A SWAP1 PUSH2 0xE62 JUMP JUMPDEST PUSH1 0x40 MLOAD DUP1 SWAP2 SUB SWAP1 REVERT JUMPDEST PUSH1 0x1 DUP2 DUP2 SLOAD DUP2 LT PUSH2 0x2A7 JUMPI PUSH2 0x2A6 PUSH2 0xE82 JUMP JUMPDEST JUMPDEST SWAP1 PUSH1 0x0 MSTORE PUSH1 0x20 PUSH1 0x0 KECCAK256 SWAP1 PUSH1 0x2 MUL ADD PUSH1 0x0 ADD PUSH1 0x0 DUP2 DUP2 SWAP1 SLOAD SWAP1 PUSH2 0x100 EXP SWAP1 DIV PUSH3 0xFFFFFF AND DUP1 SWAP3 SWAP2 SWAP1 PUSH2 0x2D7 SWAP1 PUSH2 0xEE0 JUMP JUMPDEST SWAP2 SWAP1 PUSH2 0x100 EXP DUP2 SLOAD DUP2 PUSH3 0xFFFFFF MUL NOT AND SWAP1 DUP4 PUSH3 0xFFFFFF AND MUL OR SWAP1 SSTORE POP POP PUSH1 0x1 PUSH1 0x2 PUSH1 0x0 CALLER PUSH20 0xFFFFFFFFFFFFFFFFFFFFFFFFFFFFFFFFFFFFFFFF AND PUSH20 0xFFFFFFFFFFFFFFFFFFFFFFFFFFFFFFFFFFFFFFFF AND DUP2 MSTORE PUSH1 0x20 ADD SWAP1 DUP2 MSTORE PUSH1 0x20 ADD PUSH1 0x0 KECCAK256 PUSH1 0x0 ADD PUSH1 0x1 PUSH2 0x100 EXP DUP2 SLOAD DUP2 PUSH1 0xFF MUL NOT AND SWAP1 DUP4 ISZERO ISZERO MUL OR SWAP1 SSTORE POP POP JUMP JUMPDEST PUSH1 0x60 PUSH1 0x1 DUP1 SLOAD DUP1 PUSH1 0x20 MUL PUSH1 0x20 ADD PUSH1 0x40 MLOAD SWAP1 DUP2 ADD PUSH1 0x40 MSTORE DUP1 SWAP3 SWAP2 SWAP1 DUP2 DUP2 MSTORE PUSH1 0x20 ADD PUSH1 0x0 SWAP1 JUMPDEST DUP3 DUP3 LT ISZERO PUSH2 0x45D JUMPI DUP4 DUP3 SWAP1 PUSH1 0x0 MSTORE PUSH1 0x20 PUSH1 0x0 KECCAK256 SWAP1 PUSH1 0x2 MUL ADD PUSH1 0x40 MLOAD DUP1 PUSH1 0x40 ADD PUSH1 0x40 MSTORE SWAP1 DUP2 PUSH1 0x0 DUP3 ADD PUSH1 0x0 SWAP1 SLOAD SWAP1 PUSH2 0x100 EXP SWAP1 DIV PUSH3 0xFFFFFF AND PUSH3 0xFFFFFF AND PUSH3 0xFFFFFF AND DUP2 MSTORE PUSH1 0x20 ADD PUSH1 0x1 DUP3 ADD DUP1 SLOAD PUSH2 0x3CC SWAP1 PUSH2 0xF3B JUMP JUMPDEST DUP1 PUSH1 0x1F ADD PUSH1 0x20 DUP1 SWAP2 DIV MUL PUSH1 0x20 ADD PUSH1 0x40 MLOAD SWAP1 DUP2 ADD PUSH1 0x40 MSTORE DUP1 SWAP3 SWAP2 SWAP1 DUP2 DUP2 MSTORE PUSH1 0x20 ADD DUP3 DUP1 SLOAD PUSH2 0x3F8 SWAP1 PUSH2 0xF3B JUMP JUMPDEST DUP1 ISZERO PUSH2 0x445 JUMPI DUP1 PUSH1 0x1F LT PUSH2 0x41A JUMPI PUSH2 0x100 DUP1 DUP4 SLOAD DIV MUL DUP4 MSTORE SWAP2 PUSH1 0x20 ADD SWAP2 PUSH2 0x445 JUMP JUMPDEST DUP3 ADD SWAP2 SWAP1 PUSH1 0x0 MSTORE PUSH1 0x20 PUSH1 0x0 KECCAK256 SWAP1 JUMPDEST DUP2 SLOAD DUP2 MSTORE SWAP1 PUSH1 0x1 ADD SWAP1 PUSH1 0x20 ADD DUP1 DUP4 GT PUSH2 0x428 JUMPI DUP3 SWAP1 SUB PUSH1 0x1F AND DUP3 ADD SWAP2 JUMPDEST POP POP POP POP POP DUP2 MSTORE POP POP DUP2 MSTORE PUSH1 0x20 ADD SWAP1 PUSH1 0x1 ADD SWAP1 PUSH2 0x376 JUMP JUMPDEST POP POP POP POP SWAP1 POP SWAP1 JUMP JUMPDEST PUSH1 0x60 PUSH1 0x0 DUP1 PUSH1 0x1 SWAP1 POP JUMPDEST PUSH1 0x1 DUP1 SLOAD SWAP1 POP DUP2 LT ISZERO PUSH2 0x50C JUMPI PUSH1 0x1 DUP3 DUP2 SLOAD DUP2 LT PUSH2 0x491 JUMPI PUSH2 0x490 PUSH2 0xE82 JUMP JUMPDEST JUMPDEST SWAP1 PUSH1 0x0 MSTORE PUSH1 0x20 PUSH1 0x0 KECCAK256 SWAP1 PUSH1 0x2 MUL ADD PUSH1 0x0 ADD PUSH1 0x0 SWAP1 SLOAD SWAP1 PUSH2 0x100 EXP SWAP1 DIV PUSH3 0xFFFFFF AND PUSH3 0xFFFFFF AND PUSH1 0x1 DUP3 DUP2 SLOAD DUP2 LT PUSH2 0x4CB JUMPI PUSH2 0x4CA PUSH2 0xE82 JUMP JUMPDEST JUMPDEST SWAP1 PUSH1 0x0 MSTORE PUSH1 0x20 PUSH1 0x0 KECCAK256 SWAP1 PUSH1 0x2 MUL ADD PUSH1 0x0 ADD PUSH1 0x0 SWAP1 SLOAD SWAP1 PUSH2 0x100 EXP SWAP1 DIV PUSH3 0xFFFFFF AND PUSH3 0xFFFFFF AND GT ISZERO PUSH2 0x4FB JUMPI DUP1 SWAP2 POP JUMPDEST DUP1 PUSH2 0x505 SWAP1 PUSH2 0xF6D JUMP JUMPDEST SWAP1 POP PUSH2 0x470 JUMP JUMPDEST POP PUSH1 0x1 DUP2 DUP2 SLOAD DUP2 LT PUSH2 0x521 JUMPI PUSH2 0x520 PUSH2 0xE82 JUMP JUMPDEST JUMPDEST SWAP1 PUSH1 0x0 MSTORE PUSH1 0x20 PUSH1 0x0 KECCAK256 SWAP1 PUSH1 0x2 MUL ADD PUSH1 0x1 ADD DUP1 SLOAD PUSH2 0x53D SWAP1 PUSH2 0xF3B JUMP JUMPDEST DUP1 PUSH1 0x1F ADD PUSH1 0x20 DUP1 SWAP2 DIV MUL PUSH1 0x20 ADD PUSH1 0x40 MLOAD SWAP1 DUP2 ADD PUSH1 0x40 MSTORE DUP1 SWAP3 SWAP2 SWAP1 DUP2 DUP2 MSTORE PUSH1 0x20 ADD DUP3 DUP1 SLOAD PUSH2 0x569 SWAP1 PUSH2 0xF3B JUMP JUMPDEST DUP1 ISZERO PUSH2 0x5B6 JUMPI DUP1 PUSH1 0x1F LT PUSH2 0x58B JUMPI PUSH2 0x100 DUP1 DUP4 SLOAD DIV MUL DUP4 MSTORE SWAP2 PUSH1 0x20 ADD SWAP2 PUSH2 0x5B6 JUMP JUMPDEST DUP3 ADD SWAP2 SWAP1 PUSH1 0x0 MSTORE PUSH1 0x20 PUSH1 0x0 KECCAK256 SWAP1 JUMPDEST DUP2 SLOAD DUP2 MSTORE SWAP1 PUSH1 0x1 ADD SWAP1 PUSH1 0x20 ADD DUP1 DUP4 GT PUSH2 0x599 JUMPI DUP3 SWAP1 SUB PUSH1 0x1F AND DUP3 ADD SWAP2 JUMPDEST POP POP POP POP POP SWAP2 POP POP SWAP1 JUMP JUMPDEST PUSH2 0x5C9 PUSH2 0x948 JUMP JUMPDEST PUSH1 0x1 DUP3 DUP2 SLOAD DUP2 LT PUSH2 0x5DD JUMPI PUSH2 0x5DC PUSH2 0xE82 JUMP JUMPDEST JUMPDEST SWAP1 PUSH1 0x0 MSTORE PUSH1 0x20 PUSH1 0x0 KECCAK256 SWAP1 PUSH1 0x2 MUL ADD PUSH1 0x40 MLOAD DUP1 PUSH1 0x40 ADD PUSH1 0x40 MSTORE SWAP1 DUP2 PUSH1 0x0 DUP3 ADD PUSH1 0x0 SWAP1 SLOAD SWAP1 PUSH2 0x100 EXP SWAP1 DIV PUSH3 0xFFFFFF AND PUSH3 0xFFFFFF AND PUSH3 0xFFFFFF AND DUP2 MSTORE PUSH1 0x20 ADD PUSH1 0x1 DUP3 ADD DUP1 SLOAD PUSH2 0x629 SWAP1 PUSH2 0xF3B JUMP JUMPDEST DUP1 PUSH1 0x1F ADD PUSH1 0x20 DUP1 SWAP2 DIV MUL PUSH1 0x20 ADD PUSH1 0x40 MLOAD SWAP1 DUP2 ADD PUSH1 0x40 MSTORE DUP1 SWAP3 SWAP2 SWAP1 DUP2 DUP2 MSTORE PUSH1 0x20 ADD DUP3 DUP1 SLOAD PUSH2 0x655 SWAP1 PUSH2 0xF3B JUMP JUMPDEST DUP1 ISZERO PUSH2 0x6A2 JUMPI DUP1 PUSH1 0x1F LT PUSH2 0x677 JUMPI PUSH2 0x100 DUP1 DUP4 SLOAD DIV MUL DUP4 MSTORE SWAP2 PUSH1 0x20 ADD SWAP2 PUSH2 0x6A2 JUMP JUMPDEST DUP3 ADD SWAP2 SWAP1 PUSH1 0x0 MSTORE PUSH1 0x20 PUSH1 0x0 KECCAK256 SWAP1 JUMPDEST DUP2 SLOAD DUP2 MSTORE SWAP1 PUSH1 0x1 ADD SWAP1 PUSH1 0x20 ADD DUP1 DUP4 GT PUSH2 0x685 JUMPI DUP3 SWAP1 SUB PUSH1 0x1F AND DUP3 ADD SWAP2 JUMPDEST POP POP POP POP POP DUP2 MSTORE POP POP SWAP1 POP SWAP2 SWAP1 POP JUMP JUMPDEST PUSH1 0x0 PUSH32 0x0 SWAP1 POP SWAP1 JUMP JUMPDEST PUSH1 0x0 DUP1 SLOAD SWAP1 PUSH2 0x100 EXP SWAP1 DIV PUSH20 0xFFFFFFFFFFFFFFFFFFFFFFFFFFFFFFFFFFFFFFFF AND PUSH20 0xFFFFFFFFFFFFFFFFFFFFFFFFFFFFFFFFFFFFFFFF AND CALLER PUSH20 0xFFFFFFFFFFFFFFFFFFFFFFFFFFFFFFFFFFFFFFFF AND EQ PUSH2 0x768 JUMPI PUSH1 0x40 MLOAD PUSH32 0x8C379A000000000000000000000000000000000000000000000000000000000 DUP2 MSTORE PUSH1 0x4 ADD PUSH2 0x75F SWAP1 PUSH2 0x1028 JUMP JUMPDEST PUSH1 0x40 MLOAD DUP1 SWAP2 SUB SWAP1 REVERT JUMPDEST PUSH32 0x0 TIMESTAMP GT ISZERO PUSH2 0x7CB JUMPI PUSH1 0x40 MLOAD PUSH32 0x8C379A000000000000000000000000000000000000000000000000000000000 DUP2 MSTORE PUSH1 0x4 ADD PUSH2 0x7C2 SWAP1 PUSH2 0x1094 JUMP JUMPDEST PUSH1 0x40 MLOAD DUP1 SWAP2 SUB SWAP1 REVERT JUMPDEST PUSH1 0x2 PUSH1 0x0 DUP3 PUSH20 0xFFFFFFFFFFFFFFFFFFFFFFFFFFFFFFFFFFFFFFFF AND PUSH20 0xFFFFFFFFFFFFFFFFFFFFFFFFFFFFFFFFFFFFFFFF AND DUP2 MSTORE PUSH1 0x20 ADD SWAP1 DUP2 MSTORE PUSH1 0x20 ADD PUSH1 0x0 KECCAK256 PUSH1 0x0 ADD PUSH1 0x0 SWAP1 SLOAD SWAP1 PUSH2 0x100 EXP SWAP1 DIV PUSH1 0xFF AND ISZERO PUSH2 0x85B JUMPI PUSH1 0x40 MLOAD PUSH32 0x8C379A000000000000000000000000000000000000000000000000000000000 DUP2 MSTORE PUSH1 0x4 ADD PUSH2 0x852 SWAP1 PUSH2 0x1100 JUMP JUMPDEST PUSH1 0x40 MLOAD DUP1 SWAP2 SUB SWAP1 REVERT JUMPDEST PUSH1 0x1 PUSH1 0x2 PUSH1 0x0 DUP4 PUSH20 0xFFFFFFFFFFFFFFFFFFFFFFFFFFFFFFFFFFFFFFFF AND PUSH20 0xFFFFFFFFFFFFFFFFFFFFFFFFFFFFFFFFFFFFFFFF AND DUP2 MSTORE PUSH1 0x20 ADD SWAP1 DUP2 MSTORE PUSH1 0x20 ADD PUSH1 0x0 KECCAK256 PUSH1 0x0 ADD PUSH1 0x0 PUSH2 0x100 EXP DUP2 SLOAD DUP2 PUSH1 0xFF MUL NOT AND SWAP1 DUP4 ISZERO ISZERO MUL OR SWAP1 SSTORE POP POP JUMP JUMPDEST PUSH2 0x8C1 PUSH2 0x967 JUMP JUMPDEST PUSH1 0x2 PUSH1 0x0 DUP4 PUSH20 0xFFFFFFFFFFFFFFFFFFFFFFFFFFFFFFFFFFFFFFFF AND PUSH20 0xFFFFFFFFFFFFFFFFFFFFFFFFFFFFFFFFFFFFFFFF AND DUP2 MSTORE PUSH1 0x20 ADD SWAP1 DUP2 MSTORE PUSH1 0x20 ADD PUSH1 0x0 KECCAK256 PUSH1 0x40 MLOAD DUP1 PUSH1 0x40 ADD PUSH1 0x40 MSTORE SWAP1 DUP2 PUSH1 0x0 DUP3 ADD PUSH1 0x0 SWAP1 SLOAD SWAP1 PUSH2 0x100 EXP SWAP1 DIV PUSH1 0xFF AND ISZERO ISZERO ISZERO ISZERO DUP2 MSTORE PUSH1 0x20 ADD PUSH1 0x0 DUP3 ADD PUSH1 0x1 SWAP1 SLOAD SWAP1 PUSH2 0x100 EXP SWAP1 DIV PUSH1 0xFF AND ISZERO ISZERO ISZERO ISZERO DUP2 MSTORE POP POP SWAP1 POP SWAP2 SWAP1 POP JUMP JUMPDEST PUSH1 0x40 MLOAD DUP1 PUSH1 0x40 ADD PUSH1 0x40 MSTORE DUP1 PUSH1 0x0 PUSH3 0xFFFFFF AND DUP2 MSTORE PUSH1 0x20 ADD PUSH1 0x60 DUP2 MSTORE POP SWAP1 JUMP JUMPDEST PUSH1 0x40 MLOAD DUP1 PUSH1 0x40 ADD PUSH1 0x40 MSTORE DUP1 PUSH1 0x0 ISZERO ISZERO DUP2 MSTORE PUSH1 0x20 ADD PUSH1 0x0 ISZERO ISZERO DUP2 MSTORE POP SWAP1 JUMP JUMPDEST PUSH1 0x0 DUP1 REVERT JUMPDEST PUSH1 0x0 DUP2 SWAP1 POP SWAP2 SWAP1 POP JUMP JUMPDEST PUSH2 0x99D DUP2 PUSH2 0x98A JUMP JUMPDEST DUP2 EQ PUSH2 0x9A8 JUMPI PUSH1 0x0 DUP1 REVERT JUMPDEST POP JUMP JUMPDEST PUSH1 0x0 DUP2 CALLDATALOAD SWAP1 POP PUSH2 0x9BA DUP2 PUSH2 0x994 JUMP JUMPDEST SWAP3 SWAP2 POP POP JUMP JUMPDEST PUSH1 0x0 PUSH1 0x20 DUP3 DUP5 SUB SLT ISZERO PUSH2 0x9D6 JUMPI PUSH2 0x9D5 PUSH2 0x985 JUMP JUMPDEST JUMPDEST PUSH1 0x0 PUSH2 0x9E4 DUP5 DUP3 DUP6 ADD PUSH2 0x9AB JUMP JUMPDEST SWAP2 POP POP SWAP3 SWAP2 POP POP JUMP JUMPDEST PUSH1 0x0 DUP2 MLOAD SWAP1 POP SWAP2 SWAP1 POP JUMP JUMPDEST PUSH1 0x0 DUP3 DUP3 MSTORE PUSH1 0x20 DUP3 ADD SWAP1 POP SWAP3 SWAP2 POP POP JUMP JUMPDEST PUSH1 0x0 DUP2 SWAP1 POP PUSH1 0x20 DUP3 ADD SWAP1 POP SWAP2 SWAP1 POP JUMP JUMPDEST PUSH1 0x0 PUSH3 0xFFFFFF DUP3 AND SWAP1 POP SWAP2 SWAP1 POP JUMP JUMPDEST PUSH2 0xA31 DUP2 PUSH2 0xA19 JUMP JUMPDEST DUP3 MSTORE POP POP JUMP JUMPDEST PUSH1 0x0 DUP2 MLOAD SWAP1 POP SWAP2 SWAP1 POP JUMP JUMPDEST PUSH1 0x0 DUP3 DUP3 MSTORE PUSH1 0x20 DUP3 ADD SWAP1 POP SWAP3 SWAP2 POP POP JUMP JUMPDEST PUSH1 0x0 JUMPDEST DUP4 DUP2 LT ISZERO PUSH2 0xA71 JUMPI DUP1 DUP3 ADD MLOAD DUP2 DUP5 ADD MSTORE PUSH1 0x20 DUP2 ADD SWAP1 POP PUSH2 0xA56 JUMP JUMPDEST DUP4 DUP2 GT ISZERO PUSH2 0xA80 JUMPI PUSH1 0x0 DUP5 DUP5 ADD MSTORE JUMPDEST POP POP POP POP JUMP JUMPDEST PUSH1 0x0 PUSH1 0x1F NOT PUSH1 0x1F DUP4 ADD AND SWAP1 POP SWAP2 SWAP1 POP JUMP JUMPDEST PUSH1 0x0 PUSH2 0xAA2 DUP3 PUSH2 0xA37 JUMP JUMPDEST PUSH2 0xAAC DUP2 DUP6 PUSH2 0xA42 JUMP JUMPDEST SWAP4 POP PUSH2 0xABC DUP2 DUP6 PUSH1 0x20 DUP7 ADD PUSH2 0xA53 JUMP JUMPDEST PUSH2 0xAC5 DUP2 PUSH2 0xA86 JUMP JUMPDEST DUP5 ADD SWAP2 POP POP SWAP3 SWAP2 POP POP JUMP JUMPDEST PUSH1 0x0 PUSH1 0x40 DUP4 ADD PUSH1 0x0 DUP4 ADD MLOAD PUSH2 0xAE8 PUSH1 0x0 DUP7 ADD DUP3 PUSH2 0xA28 JUMP JUMPDEST POP PUSH1 0x20 DUP4 ADD MLOAD DUP5 DUP3 SUB PUSH1 0x20 DUP7 ADD MSTORE PUSH2 0xB00 DUP3 DUP3 PUSH2 0xA97 JUMP JUMPDEST SWAP2 POP POP DUP1 SWAP2 POP POP SWAP3 SWAP2 POP POP JUMP JUMPDEST PUSH1 0x0 PUSH2 0xB19 DUP4 DUP4 PUSH2 0xAD0 JUMP JUMPDEST SWAP1 POP SWAP3 SWAP2 POP POP JUMP JUMPDEST PUSH1 0x0 PUSH1 0x20 DUP3 ADD SWAP1 POP SWAP2 SWAP1 POP JUMP JUMPDEST PUSH1 0x0 PUSH2 0xB39 DUP3 PUSH2 0x9ED JUMP JUMPDEST PUSH2 0xB43 DUP2 DUP6 PUSH2 0x9F8 JUMP JUMPDEST SWAP4 POP DUP4 PUSH1 0x20 DUP3 MUL DUP6 ADD PUSH2 0xB55 DUP6 PUSH2 0xA09 JUMP JUMPDEST DUP1 PUSH1 0x0 JUMPDEST DUP6 DUP2 LT ISZERO PUSH2 0xB91 JUMPI DUP5 DUP5 SUB DUP10 MSTORE DUP2 MLOAD PUSH2 0xB72 DUP6 DUP3 PUSH2 0xB0D JUMP JUMPDEST SWAP5 POP PUSH2 0xB7D DUP4 PUSH2 0xB21 JUMP JUMPDEST SWAP3 POP PUSH1 0x20 DUP11 ADD SWAP10 POP POP PUSH1 0x1 DUP2 ADD SWAP1 POP PUSH2 0xB59 JUMP JUMPDEST POP DUP3 SWAP8 POP DUP8 SWAP6 POP POP POP POP POP POP SWAP3 SWAP2 POP POP JUMP JUMPDEST PUSH1 0x0 PUSH1 0x20 DUP3 ADD SWAP1 POP DUP2 DUP2 SUB PUSH1 0x0 DUP4 ADD MSTORE PUSH2 0xBBD DUP2 DUP5 PUSH2 0xB2E JUMP JUMPDEST SWAP1 POP SWAP3 SWAP2 POP POP JUMP JUMPDEST PUSH1 0x0 DUP3 DUP3 MSTORE PUSH1 0x20 DUP3 ADD SWAP1 POP SWAP3 SWAP2 POP POP JUMP JUMPDEST PUSH1 0x0 PUSH2 0xBE1 DUP3 PUSH2 0xA37 JUMP JUMPDEST PUSH2 0xBEB DUP2 DUP6 PUSH2 0xBC5 JUMP JUMPDEST SWAP4 POP PUSH2 0xBFB DUP2 DUP6 PUSH1 0x20 DUP7 ADD PUSH2 0xA53 JUMP JUMPDEST PUSH2 0xC04 DUP2 PUSH2 0xA86 JUMP JUMPDEST DUP5 ADD SWAP2 POP POP SWAP3 SWAP2 POP POP JUMP JUMPDEST PUSH1 0x0 PUSH1 0x20 DUP3 ADD SWAP1 POP DUP2 DUP2 SUB PUSH1 0x0 DUP4 ADD MSTORE PUSH2 0xC29 DUP2 DUP5 PUSH2 0xBD6 JUMP JUMPDEST SWAP1 POP SWAP3 SWAP2 POP POP JUMP JUMPDEST PUSH1 0x0 PUSH1 0x40 DUP4 ADD PUSH1 0x0 DUP4 ADD MLOAD PUSH2 0xC49 PUSH1 0x0 DUP7 ADD DUP3 PUSH2 0xA28 JUMP JUMPDEST POP PUSH1 0x20 DUP4 ADD MLOAD DUP5 DUP3 SUB PUSH1 0x20 DUP7 ADD MSTORE PUSH2 0xC61 DUP3 DUP3 PUSH2 0xA97 JUMP JUMPDEST SWAP2 POP POP DUP1 SWAP2 POP POP SWAP3 SWAP2 POP POP JUMP JUMPDEST PUSH1 0x0 PUSH1 0x20 DUP3 ADD SWAP1 POP DUP2 DUP2 SUB PUSH1 0x0 DUP4 ADD MSTORE PUSH2 0xC88 DUP2 DUP5 PUSH2 0xC31 JUMP JUMPDEST SWAP1 POP SWAP3 SWAP2 POP POP JUMP JUMPDEST PUSH2 0xC99 DUP2 PUSH2 0x98A JUMP JUMPDEST DUP3 MSTORE POP POP JUMP JUMPDEST PUSH1 0x0 PUSH1 0x20 DUP3 ADD SWAP1 POP PUSH2 0xCB4 PUSH1 0x0 DUP4 ADD DUP5 PUSH2 0xC90 JUMP JUMPDEST SWAP3 SWAP2 POP POP JUMP JUMPDEST PUSH1 0x0 PUSH20 0xFFFFFFFFFFFFFFFFFFFFFFFFFFFFFFFFFFFFFFFF DUP3 AND SWAP1 POP SWAP2 SWAP1 POP JUMP JUMPDEST PUSH1 0x0 PUSH2 0xCE5 DUP3 PUSH2 0xCBA JUMP JUMPDEST SWAP1 POP SWAP2 SWAP1 POP JUMP JUMPDEST PUSH2 0xCF5 DUP2 PUSH2 0xCDA JUMP JUMPDEST DUP2 EQ PUSH2 0xD00 JUMPI PUSH1 0x0 DUP1 REVERT JUMPDEST POP JUMP JUMPDEST PUSH1 0x0 DUP2 CALLDATALOAD SWAP1 POP PUSH2 0xD12 DUP2 PUSH2 0xCEC JUMP JUMPDEST SWAP3 SWAP2 POP POP JUMP JUMPDEST PUSH1 0x0 PUSH1 0x20 DUP3 DUP5 SUB SLT ISZERO PUSH2 0xD2E JUMPI PUSH2 0xD2D PUSH2 0x985 JUMP JUMPDEST JUMPDEST PUSH1 0x0 PUSH2 0xD3C DUP5 DUP3 DUP6 ADD PUSH2 0xD03 JUMP JUMPDEST SWAP2 POP POP SWAP3 SWAP2 POP POP JUMP JUMPDEST PUSH1 0x0 DUP2 ISZERO ISZERO SWAP1 POP SWAP2 SWAP1 POP JUMP JUMPDEST PUSH2 0xD5A DUP2 PUSH2 0xD45 JUMP JUMPDEST DUP3 MSTORE POP POP JUMP JUMPDEST PUSH1 0x40 DUP3 ADD PUSH1 0x0 DUP3 ADD MLOAD PUSH2 0xD76 PUSH1 0x0 DUP6 ADD DUP3 PUSH2 0xD51 JUMP JUMPDEST POP PUSH1 0x20 DUP3 ADD MLOAD PUSH2 0xD89 PUSH1 0x20 DUP6 ADD DUP3 PUSH2 0xD51 JUMP JUMPDEST POP POP POP POP JUMP JUMPDEST PUSH1 0x0 PUSH1 0x40 DUP3 ADD SWAP1 POP PUSH2 0xDA4 PUSH1 0x0 DUP4 ADD DUP5 PUSH2 0xD60 JUMP JUMPDEST SWAP3 SWAP2 POP POP JUMP JUMPDEST PUSH32 0x596F7520417265204E6F7420416C6C6F77656420546F20566F74650000000000 PUSH1 0x0 DUP3 ADD MSTORE POP JUMP JUMPDEST PUSH1 0x0 PUSH2 0xDE0 PUSH1 0x1B DUP4 PUSH2 0xBC5 JUMP JUMPDEST SWAP2 POP PUSH2 0xDEB DUP3 PUSH2 0xDAA JUMP JUMPDEST PUSH1 0x20 DUP3 ADD SWAP1 POP SWAP2 SWAP1 POP JUMP JUMPDEST PUSH1 0x0 PUSH1 0x20 DUP3 ADD SWAP1 POP DUP2 DUP2 SUB PUSH1 0x0 DUP4 ADD MSTORE PUSH2 0xE0F DUP2 PUSH2 0xDD3 JUMP JUMPDEST SWAP1 POP SWAP2 SWAP1 POP JUMP JUMPDEST PUSH32 0x596F7520416C726561647920566F746564000000000000000000000000000000 PUSH1 0x0 DUP3 ADD MSTORE POP JUMP JUMPDEST PUSH1 0x0 PUSH2 0xE4C PUSH1 0x11 DUP4 PUSH2 0xBC5 JUMP JUMPDEST SWAP2 POP PUSH2 0xE57 DUP3 PUSH2 0xE16 JUMP JUMPDEST PUSH1 0x20 DUP3 ADD SWAP1 POP SWAP2 SWAP1 POP JUMP JUMPDEST PUSH1 0x0 PUSH1 0x20 DUP3 ADD SWAP1 POP DUP2 DUP2 SUB PUSH1 0x0 DUP4 ADD MSTORE PUSH2 0xE7B DUP2 PUSH2 0xE3F JUMP JUMPDEST SWAP1 POP SWAP2 SWAP1 POP JUMP JUMPDEST PUSH32 0x4E487B7100000000000000000000000000000000000000000000000000000000 PUSH1 0x0 MSTORE PUSH1 0x32 PUSH1 0x4 MSTORE PUSH1 0x24 PUSH1 0x0 REVERT JUMPDEST PUSH32 0x4E487B7100000000000000000000000000000000000000000000000000000000 PUSH1 0x0 MSTORE PUSH1 0x11 PUSH1 0x4 MSTORE PUSH1 0x24 PUSH1 0x0 REVERT JUMPDEST PUSH1 0x0 PUSH2 0xEEB DUP3 PUSH2 0xA19 JUMP JUMPDEST SWAP2 POP PUSH3 0xFFFFFF DUP3 EQ ISZERO PUSH2 0xF01 JUMPI PUSH2 0xF00 PUSH2 0xEB1 JUMP JUMPDEST JUMPDEST PUSH1 0x1 DUP3 ADD SWAP1 POP SWAP2 SWAP1 POP JUMP JUMPDEST PUSH32 0x4E487B7100000000000000000000000000000000000000000000000000000000 PUSH1 0x0 MSTORE PUSH1 0x22 PUSH1 0x4 MSTORE PUSH1 0x24 PUSH1 0x0 REVERT JUMPDEST PUSH1 0x0 PUSH1 0x2 DUP3 DIV SWAP1 POP PUSH1 0x1 DUP3 AND DUP1 PUSH2 0xF53 JUMPI PUSH1 0x7F DUP3 AND SWAP2 POP JUMPDEST PUSH1 0x20 DUP3 LT DUP2 EQ ISZERO PUSH2 0xF67 JUMPI PUSH2 0xF66 PUSH2 0xF0C JUMP JUMPDEST JUMPDEST POP SWAP2 SWAP1 POP JUMP JUMPDEST PUSH1 0x0 PUSH2 0xF78 DUP3 PUSH2 0x98A JUMP JUMPDEST SWAP2 POP PUSH32 0xFFFFFFFFFFFFFFFFFFFFFFFFFFFFFFFFFFFFFFFFFFFFFFFFFFFFFFFFFFFFFFFF DUP3 EQ ISZERO PUSH2 0xFAB JUMPI PUSH2 0xFAA PUSH2 0xEB1 JUMP JUMPDEST JUMPDEST PUSH1 0x1 DUP3 ADD SWAP1 POP SWAP2 SWAP1 POP JUMP JUMPDEST PUSH32 0x4F6E6C7920546865204F776E657220497320416C6C6F77656420546F20506572 PUSH1 0x0 DUP3 ADD MSTORE PUSH32 0x666F726D2054686973204F7065726174696F6E00000000000000000000000000 PUSH1 0x20 DUP3 ADD MSTORE POP JUMP JUMPDEST PUSH1 0x0 PUSH2 0x1012 PUSH1 0x33 DUP4 PUSH2 0xBC5 JUMP JUMPDEST SWAP2 POP PUSH2 0x101D DUP3 PUSH2 0xFB6 JUMP JUMPDEST PUSH1 0x40 DUP3 ADD SWAP1 POP SWAP2 SWAP1 POP JUMP JUMPDEST PUSH1 0x0 PUSH1 0x20 DUP3 ADD SWAP1 POP DUP2 DUP2 SUB PUSH1 0x0 DUP4 ADD MSTORE PUSH2 0x1041 DUP2 PUSH2 0x1005 JUMP JUMPDEST SWAP1 POP SWAP2 SWAP1 POP JUMP JUMPDEST PUSH32 0x566F74696E6720506572696F6420486173204265656E20457863656564656400 PUSH1 0x0 DUP3 ADD MSTORE POP JUMP JUMPDEST PUSH1 0x0 PUSH2 0x107E PUSH1 0x1F DUP4 PUSH2 0xBC5 JUMP JUMPDEST SWAP2 POP PUSH2 0x1089 DUP3 PUSH2 0x1048 JUMP JUMPDEST PUSH1 0x20 DUP3 ADD SWAP1 POP SWAP2 SWAP1 POP JUMP JUMPDEST PUSH1 0x0 PUSH1 0x20 DUP3 ADD SWAP1 POP DUP2 DUP2 SUB PUSH1 0x0 DUP4 ADD MSTORE PUSH2 0x10AD DUP2 PUSH2 0x1071 JUMP JUMPDEST SWAP1 POP SWAP2 SWAP1 POP JUMP JUMPDEST PUSH32 0x5573657220416C72656164792041646465640000000000000000000000000000 PUSH1 0x0 DUP3 ADD MSTORE POP JUMP JUMPDEST PUSH1 0x0 PUSH2 0x10EA PUSH1 0x12 DUP4 PUSH2 0xBC5 JUMP JUMPDEST SWAP2 POP PUSH2 0x10F5 DUP3 PUSH2 0x10B4 JUMP JUMPDEST PUSH1 0x20 DUP3 ADD SWAP1 POP SWAP2 SWAP1 POP JUMP JUMPDEST PUSH1 0x0 PUSH1 0x20 DUP3 ADD SWAP1 POP DUP2 DUP2 SUB PUSH1 0x0 DUP4 ADD MSTORE PUSH2 0x1119 DUP2 PUSH2 0x10DD JUMP JUMPDEST SWAP1 POP SWAP2 SWAP1 POP JUMP INVALID LOG2 PUSH5 0x6970667358 0x22 SLT KECCAK256 STOP 0xAC 0xB3 PUSH6 0x8F429CD3C252 JUMP SHL JUMPDEST PUSH14 0xCC36A0EF70AC7C3AB6435972BA45 0xAE 0xD3 0xAA 0xB8 PUSH5 0x736F6C6343 STOP ADDMOD ADDMOD STOP CALLER "},"methodIdentifiers":{"getCandidate(uint256)":"35b8e820","getCandidates()":"06a49fce","getVoter(address)":"d4f50f98","getVotingPeriod()":"3ecc6a43","getWinnerCandidate()":"06f0d4f6","permitToVote(address)":"82d21f02","vote(uint256)":"0121b93f"}}}}}