{
  "_format": "hh-sol-artifact-1",
  "contractName": "Dvoting",
  "sourceName": "contracts/Dvoting.sol",
  "abi": [
    {
      "inputs": [
        {
          "internalType": "uint256",
          "name": "_votingDays",
          "type": "uint256"
        }
      ],
      "stateMutability": "nonpayable",
      "type": "constructor"
    },
    {
      "inputs": [
        {
          "internalType": "uint256",
          "name": "_candidateId",
          "type": "uint256"
        }
      ],
      "name": "getCandidate",
      "outputs": [
        {
          "components": [
            {
              "internalType": "uint24",
              "name": "votesCount",
              "type": "uint24"
            },
            {
              "internalType": "string",
              "name": "name",
              "type": "string"
            }
          ],
          "internalType": "struct Dvoting.candidate",
          "name": "",
          "type": "tuple"
        }
      ],
      "stateMutability": "view",
      "type": "function"
    },
    {
      "inputs": [],
      "name": "getCandidates",
      "outputs": [
        {
          "components": [
            {
              "internalType": "uint24",
              "name": "votesCount",
              "type": "uint24"
            },
            {
              "internalType": "string",
              "name": "name",
              "type": "string"
            }
          ],
          "internalType": "struct Dvoting.candidate[]",
          "name": "",
          "type": "tuple[]"
        }
      ],
      "stateMutability": "view",
      "type": "function"
    },
    {
      "inputs": [
        {
          "internalType": "address",
          "name": "_voterAddress",
          "type": "address"
        }
      ],
      "name": "getVoter",
      "outputs": [
        {
          "components": [
            {
              "internalType": "bool",
              "name": "registered",
              "type": "bool"
            },
            {
              "internalType": "bool",
              "name": "voted",
              "type": "bool"
            }
          ],
          "internalType": "struct Dvoting.voter",
          "name": "",
          "type": "tuple"
        }
      ],
      "stateMutability": "view",
      "type": "function"
    },
    {
      "inputs": [],
      "name": "getVotingPeriod",
      "outputs": [
        {
          "internalType": "uint256",
          "name": "",
          "type": "uint256"
        }
      ],
      "stateMutability": "view",
      "type": "function"
    },
    {
      "inputs": [],
      "name": "getWinnerCandidate",
      "outputs": [
        {
          "internalType": "string",
          "name": "",
          "type": "string"
        }
      ],
      "stateMutability": "view",
      "type": "function"
    },
    {
      "inputs": [
        {
          "internalType": "address",
          "name": "_voter",
          "type": "address"
        }
      ],
      "name": "permitToVote",
      "outputs": [],
      "stateMutability": "nonpayable",
      "type": "function"
    },
    {
      "inputs": [
        {
          "internalType": "uint256",
          "name": "_candidateId",
          "type": "uint256"
        }
      ],
      "name": "vote",
      "outputs": [],
      "stateMutability": "nonpayable",
      "type": "function"
    }
  ],
  "bytecode": "0x60a06040523480156200001157600080fd5b506040516200179438038062001794833981810160405281019062000037919062000497565b336000806101000a81548173ffffffffffffffffffffffffffffffffffffffff021916908373ffffffffffffffffffffffffffffffffffffffff1602179055506201518081620000889190620004f8565b4262000095919062000559565b6080818152505060016040518060400160405280600062ffffff1681526020016040518060400160405280600a81526020017f4177732052617979616e00000000000000000000000000000000000000000000815250815250908060018154018082558091505060019003906000526020600020906002020160009091909190915060008201518160000160006101000a81548162ffffff021916908362ffffff16021790555060208201518160010190805190602001906200015a929190620003a7565b50505060016040518060400160405280600062ffffff1681526020016040518060400160405280600d81526020017f4d61686d6f6f6420417461726900000000000000000000000000000000000000815250815250908060018154018082558091505060019003906000526020600020906002020160009091909190915060008201518160000160006101000a81548162ffffff021916908362ffffff16021790555060208201518160010190805190602001906200021b929190620003a7565b50505060016040518060400160405280600062ffffff1681526020016040518060400160405280600c81526020017f41777320416c204d617372690000000000000000000000000000000000000000815250815250908060018154018082558091505060019003906000526020600020906002020160009091909190915060008201518160000160006101000a81548162ffffff021916908362ffffff1602179055506020820151816001019080519060200190620002dc929190620003a7565b50505060016040518060400160405280600062ffffff1681526020016040518060400160405280600881526020017f4d72205768697465000000000000000000000000000000000000000000000000815250815250908060018154018082558091505060019003906000526020600020906002020160009091909190915060008201518160000160006101000a81548162ffffff021916908362ffffff16021790555060208201518160010190805190602001906200039d929190620003a7565b505050506200061b565b828054620003b590620005e5565b90600052602060002090601f016020900481019282620003d9576000855562000425565b82601f10620003f457805160ff191683800117855562000425565b8280016001018555821562000425579182015b828111156200042457825182559160200191906001019062000407565b5b50905062000434919062000438565b5090565b5b808211156200045357600081600090555060010162000439565b5090565b600080fd5b6000819050919050565b62000471816200045c565b81146200047d57600080fd5b50565b600081519050620004918162000466565b92915050565b600060208284031215620004b057620004af62000457565b5b6000620004c08482850162000480565b91505092915050565b7f4e487b7100000000000000000000000000000000000000000000000000000000600052601160045260246000fd5b600062000505826200045c565b915062000512836200045c565b9250817fffffffffffffffffffffffffffffffffffffffffffffffffffffffffffffffff04831182151516156200054e576200054d620004c9565b5b828202905092915050565b600062000566826200045c565b915062000573836200045c565b9250827fffffffffffffffffffffffffffffffffffffffffffffffffffffffffffffffff03821115620005ab57620005aa620004c9565b5b828201905092915050565b7f4e487b7100000000000000000000000000000000000000000000000000000000600052602260045260246000fd5b60006002820490506001821680620005fe57607f821691505b60208210811415620006155762000614620005b6565b5b50919050565b6080516111566200063e600039600081816106b6015261076a01526111566000f3fe608060405234801561001057600080fd5b506004361061007d5760003560e01c806335b8e8201161005b57806335b8e820146100da5780633ecc6a431461010a57806382d21f0214610128578063d4f50f98146101445761007d565b80630121b93f1461008257806306a49fce1461009e57806306f0d4f6146100bc575b600080fd5b61009c600480360381019061009791906109c0565b610174565b005b6100a6610352565b6040516100b39190610ba3565b60405180910390f35b6100c4610466565b6040516100d19190610c0f565b60405180910390f35b6100f460048036038101906100ef91906109c0565b6105c1565b6040516101019190610c6e565b60405180910390f35b6101126106b2565b60405161011f9190610c9f565b60405180910390f35b610142600480360381019061013d9190610d18565b6106da565b005b61015e60048036038101906101599190610d18565b6108b9565b60405161016b9190610d8f565b60405180910390f35b600260003373ffffffffffffffffffffffffffffffffffffffff1673ffffffffffffffffffffffffffffffffffffffff16815260200190815260200160002060000160009054906101000a900460ff16610203576040517f08c379a00000000000000000000000000000000000000000000000000000000081526004016101fa90610df6565b60405180910390fd5b600260003373ffffffffffffffffffffffffffffffffffffffff1673ffffffffffffffffffffffffffffffffffffffff16815260200190815260200160002060000160019054906101000a900460ff1615610293576040517f08c379a000000000000000000000000000000000000000000000000000000000815260040161028a90610e62565b60405180910390fd5b600181815481106102a7576102a6610e82565b5b9060005260206000209060020201600001600081819054906101000a900462ffffff16809291906102d790610ee0565b91906101000a81548162ffffff021916908362ffffff160217905550506001600260003373ffffffffffffffffffffffffffffffffffffffff1673ffffffffffffffffffffffffffffffffffffffff16815260200190815260200160002060000160016101000a81548160ff02191690831515021790555050565b60606001805480602002602001604051908101604052809291908181526020016000905b8282101561045d57838290600052602060002090600202016040518060400160405290816000820160009054906101000a900462ffffff1662ffffff1662ffffff1681526020016001820180546103cc90610f3b565b80601f01602080910402602001604051908101604052809291908181526020018280546103f890610f3b565b80156104455780601f1061041a57610100808354040283529160200191610445565b820191906000526020600020905b81548152906001019060200180831161042857829003601f168201915b50505050508152505081526020019060010190610376565b50505050905090565b6060600080600190505b60018054905081101561050c576001828154811061049157610490610e82565b5b906000526020600020906002020160000160009054906101000a900462ffffff1662ffffff16600182815481106104cb576104ca610e82565b5b906000526020600020906002020160000160009054906101000a900462ffffff1662ffffff1611156104fb578091505b8061050590610f6d565b9050610470565b506001818154811061052157610520610e82565b5b9060005260206000209060020201600101805461053d90610f3b565b80601f016020809104026020016040519081016040528092919081815260200182805461056990610f3b565b80156105b65780601f1061058b576101008083540402835291602001916105b6565b820191906000526020600020905b81548152906001019060200180831161059957829003601f168201915b505050505091505090565b6105c9610948565b600182815481106105dd576105dc610e82565b5b90600052602060002090600202016040518060400160405290816000820160009054906101000a900462ffffff1662ffffff1662ffffff16815260200160018201805461062990610f3b565b80601f016020809104026020016040519081016040528092919081815260200182805461065590610f3b565b80156106a25780601f10610677576101008083540402835291602001916106a2565b820191906000526020600020905b81548152906001019060200180831161068557829003601f168201915b5050505050815250509050919050565b60007f0000000000000000000000000000000000000000000000000000000000000000905090565b60008054906101000a900473ffffffffffffffffffffffffffffffffffffffff1673ffffffffffffffffffffffffffffffffffffffff163373ffffffffffffffffffffffffffffffffffffffff1614610768576040517f08c379a000000000000000000000000000000000000000000000000000000000815260040161075f90611028565b60405180910390fd5b7f00000000000000000000000000000000000000000000000000000000000000004211156107cb576040517f08c379a00000000000000000000000000000000000000000000000000000000081526004016107c290611094565b60405180910390fd5b600260008273ffffffffffffffffffffffffffffffffffffffff1673ffffffffffffffffffffffffffffffffffffffff16815260200190815260200160002060000160009054906101000a900460ff161561085b576040517f08c379a000000000000000000000000000000000000000000000000000000000815260040161085290611100565b60405180910390fd5b6001600260008373ffffffffffffffffffffffffffffffffffffffff1673ffffffffffffffffffffffffffffffffffffffff16815260200190815260200160002060000160006101000a81548160ff02191690831515021790555050565b6108c1610967565b600260008373ffffffffffffffffffffffffffffffffffffffff1673ffffffffffffffffffffffffffffffffffffffff1681526020019081526020016000206040518060400160405290816000820160009054906101000a900460ff161515151581526020016000820160019054906101000a900460ff1615151515815250509050919050565b6040518060400160405280600062ffffff168152602001606081525090565b60405180604001604052806000151581526020016000151581525090565b600080fd5b6000819050919050565b61099d8161098a565b81146109a857600080fd5b50565b6000813590506109ba81610994565b92915050565b6000602082840312156109d6576109d5610985565b5b60006109e4848285016109ab565b91505092915050565b600081519050919050565b600082825260208201905092915050565b6000819050602082019050919050565b600062ffffff82169050919050565b610a3181610a19565b82525050565b600081519050919050565b600082825260208201905092915050565b60005b83811015610a71578082015181840152602081019050610a56565b83811115610a80576000848401525b50505050565b6000601f19601f8301169050919050565b6000610aa282610a37565b610aac8185610a42565b9350610abc818560208601610a53565b610ac581610a86565b840191505092915050565b6000604083016000830151610ae86000860182610a28565b5060208301518482036020860152610b008282610a97565b9150508091505092915050565b6000610b198383610ad0565b905092915050565b6000602082019050919050565b6000610b39826109ed565b610b4381856109f8565b935083602082028501610b5585610a09565b8060005b85811015610b915784840389528151610b728582610b0d565b9450610b7d83610b21565b925060208a01995050600181019050610b59565b50829750879550505050505092915050565b60006020820190508181036000830152610bbd8184610b2e565b905092915050565b600082825260208201905092915050565b6000610be182610a37565b610beb8185610bc5565b9350610bfb818560208601610a53565b610c0481610a86565b840191505092915050565b60006020820190508181036000830152610c298184610bd6565b905092915050565b6000604083016000830151610c496000860182610a28565b5060208301518482036020860152610c618282610a97565b9150508091505092915050565b60006020820190508181036000830152610c888184610c31565b905092915050565b610c998161098a565b82525050565b6000602082019050610cb46000830184610c90565b92915050565b600073ffffffffffffffffffffffffffffffffffffffff82169050919050565b6000610ce582610cba565b9050919050565b610cf581610cda565b8114610d0057600080fd5b50565b600081359050610d1281610cec565b92915050565b600060208284031215610d2e57610d2d610985565b5b6000610d3c84828501610d03565b91505092915050565b60008115159050919050565b610d5a81610d45565b82525050565b604082016000820151610d766000850182610d51565b506020820151610d896020850182610d51565b50505050565b6000604082019050610da46000830184610d60565b92915050565b7f596f7520417265204e6f7420416c6c6f77656420546f20566f74650000000000600082015250565b6000610de0601b83610bc5565b9150610deb82610daa565b602082019050919050565b60006020820190508181036000830152610e0f81610dd3565b9050919050565b7f596f7520416c726561647920566f746564000000000000000000000000000000600082015250565b6000610e4c601183610bc5565b9150610e5782610e16565b602082019050919050565b60006020820190508181036000830152610e7b81610e3f565b9050919050565b7f4e487b7100000000000000000000000000000000000000000000000000000000600052603260045260246000fd5b7f4e487b7100000000000000000000000000000000000000000000000000000000600052601160045260246000fd5b6000610eeb82610a19565b915062ffffff821415610f0157610f00610eb1565b5b600182019050919050565b7f4e487b7100000000000000000000000000000000000000000000000000000000600052602260045260246000fd5b60006002820490506001821680610f5357607f821691505b60208210811415610f6757610f66610f0c565b5b50919050565b6000610f788261098a565b91507fffffffffffffffffffffffffffffffffffffffffffffffffffffffffffffffff821415610fab57610faa610eb1565b5b600182019050919050565b7f4f6e6c7920546865204f776e657220497320416c6c6f77656420546f2050657260008201527f666f726d2054686973204f7065726174696f6e00000000000000000000000000602082015250565b6000611012603383610bc5565b915061101d82610fb6565b604082019050919050565b6000602082019050818103600083015261104181611005565b9050919050565b7f566f74696e6720506572696f6420486173204265656e20457863656564656400600082015250565b600061107e601f83610bc5565b915061108982611048565b602082019050919050565b600060208201905081810360008301526110ad81611071565b9050919050565b7f5573657220416c72656164792041646465640000000000000000000000000000600082015250565b60006110ea601283610bc5565b91506110f5826110b4565b602082019050919050565b60006020820190508181036000830152611119816110dd565b905091905056fea264697066735822122000acb3658f429cd3c252561b5b6dcc36a0ef70ac7c3ab6435972ba45aed3aab864736f6c63430008080033",
  "linkReferences": {},
  "deployedLinkReferences": {}
}