{
  "contractName": "Dvoting",
  "abi": [
    {
      "inputs": [
        {
          "internalType": "uint256",
          "name": "_votingDays",
          "type": "uint256"
        }
      ],
      "stateMutability": "nonpayable",
      "type": "constructor"
    },
    {
      "inputs": [
        {
          "internalType": "address",
          "name": "_voter",
          "type": "address"
        }
      ],
      "name": "permitToVote",
      "outputs": [],
      "stateMutability": "nonpayable",
      "type": "function"
    },
    {
      "inputs": [
        {
          "internalType": "uint256",
          "name": "_candidateId",
          "type": "uint256"
        }
      ],
      "name": "vote",
      "outputs": [],
      "stateMutability": "nonpayable",
      "type": "function"
    },
    {
      "inputs": [],
      "name": "getVotingPeriod",
      "outputs": [
        {
          "internalType": "uint256",
          "name": "",
          "type": "uint256"
        }
      ],
      "stateMutability": "view",
      "type": "function",
      "constant": true
    },
    {
      "inputs": [],
      "name": "getCandidates",
      "outputs": [
        {
          "components": [
            {
              "internalType": "uint24",
              "name": "votesCount",
              "type": "uint24"
            },
            {
              "internalType": "string",
              "name": "name",
              "type": "string"
            }
          ],
          "internalType": "struct Dvoting.candidate[]",
          "name": "",
          "type": "tuple[]"
        }
      ],
      "stateMutability": "view",
      "type": "function",
      "constant": true
    },
    {
      "inputs": [
        {
          "internalType": "uint256",
          "name": "_candidateId",
          "type": "uint256"
        }
      ],
      "name": "getCandidate",
      "outputs": [
        {
          "components": [
            {
              "internalType": "uint24",
              "name": "votesCount",
              "type": "uint24"
            },
            {
              "internalType": "string",
              "name": "name",
              "type": "string"
            }
          ],
          "internalType": "struct Dvoting.candidate",
          "name": "",
          "type": "tuple"
        }
      ],
      "stateMutability": "view",
      "type": "function",
      "constant": true
    },
    {
      "inputs": [
        {
          "internalType": "address",
          "name": "_voterAddress",
          "type": "address"
        }
      ],
      "name": "getVoter",
      "outputs": [
        {
          "components": [
            {
              "internalType": "bool",
              "name": "registered",
              "type": "bool"
            },
            {
              "internalType": "bool",
              "name": "voted",
              "type": "bool"
            }
          ],
          "internalType": "struct Dvoting.voter",
          "name": "",
          "type": "tuple"
        }
      ],
      "stateMutability": "view",
      "type": "function",
      "constant": true
    },
    {
      "inputs": [],
      "name": "getWinnerCandidate",
      "outputs": [
        {
          "internalType": "string",
          "name": "",
          "type": "string"
        }
      ],
      "stateMutability": "view",
      "type": "function",
      "constant": true
    }
  ],
  "bytecode": "0x60a06040523480156200001157600080fd5b50604051620017fe380380620017fe833981810160405281019062000037919062000497565b336000806101000a81548173ffffffffffffffffffffffffffffffffffffffff021916908373ffffffffffffffffffffffffffffffffffffffff1602179055506201518081620000889190620004f8565b4262000095919062000559565b6080818152505060016040518060400160405280600062ffffff1681526020016040518060400160405280600a81526020017f4177732052617979616e00000000000000000000000000000000000000000000815250815250908060018154018082558091505060019003906000526020600020906002020160009091909190915060008201518160000160006101000a81548162ffffff021916908362ffffff16021790555060208201518160010190805190602001906200015a929190620003a7565b50505060016040518060400160405280600062ffffff1681526020016040518060400160405280600d81526020017f4d61686d6f6f6420417461726900000000000000000000000000000000000000815250815250908060018154018082558091505060019003906000526020600020906002020160009091909190915060008201518160000160006101000a81548162ffffff021916908362ffffff16021790555060208201518160010190805190602001906200021b929190620003a7565b50505060016040518060400160405280600062ffffff1681526020016040518060400160405280600c81526020017f41777320416c204d617372690000000000000000000000000000000000000000815250815250908060018154018082558091505060019003906000526020600020906002020160009091909190915060008201518160000160006101000a81548162ffffff021916908362ffffff1602179055506020820151816001019080519060200190620002dc929190620003a7565b50505060016040518060400160405280600062ffffff1681526020016040518060400160405280600881526020017f4d72205768697465000000000000000000000000000000000000000000000000815250815250908060018154018082558091505060019003906000526020600020906002020160009091909190915060008201518160000160006101000a81548162ffffff021916908362ffffff16021790555060208201518160010190805190602001906200039d929190620003a7565b505050506200061b565b828054620003b590620005e5565b90600052602060002090601f016020900481019282620003d9576000855562000425565b82601f10620003f457805160ff191683800117855562000425565b8280016001018555821562000425579182015b828111156200042457825182559160200191906001019062000407565b5b50905062000434919062000438565b5090565b5b808211156200045357600081600090555060010162000439565b5090565b600080fd5b6000819050919050565b62000471816200045c565b81146200047d57600080fd5b50565b600081519050620004918162000466565b92915050565b600060208284031215620004b057620004af62000457565b5b6000620004c08482850162000480565b91505092915050565b7f4e487b7100000000000000000000000000000000000000000000000000000000600052601160045260246000fd5b600062000505826200045c565b915062000512836200045c565b9250817fffffffffffffffffffffffffffffffffffffffffffffffffffffffffffffffff04831182151516156200054e576200054d620004c9565b5b828202905092915050565b600062000566826200045c565b915062000573836200045c565b9250827fffffffffffffffffffffffffffffffffffffffffffffffffffffffffffffffff03821115620005ab57620005aa620004c9565b5b828201905092915050565b7f4e487b7100000000000000000000000000000000000000000000000000000000600052602260045260246000fd5b60006002820490506001821680620005fe57607f821691505b60208210811415620006155762000614620005b6565b5b50919050565b6080516111b962000645600039600081816102950152818161071901526107cd01526111b96000f3fe608060405234801561001057600080fd5b506004361061007d5760003560e01c806335b8e8201161005b57806335b8e820146100da5780633ecc6a431461010a57806382d21f0214610128578063d4f50f98146101445761007d565b80630121b93f1461008257806306a49fce1461009e57806306f0d4f6146100bc575b600080fd5b61009c60048036038101906100979190610a23565b610174565b005b6100a66103b5565b6040516100b39190610c06565b60405180910390f35b6100c46104c9565b6040516100d19190610c72565b60405180910390f35b6100f460048036038101906100ef9190610a23565b610624565b6040516101019190610cd1565b60405180910390f35b610112610715565b60405161011f9190610d02565b60405180910390f35b610142600480360381019061013d9190610d7b565b61073d565b005b61015e60048036038101906101599190610d7b565b61091c565b60405161016b9190610df2565b60405180910390f35b600260003373ffffffffffffffffffffffffffffffffffffffff1673ffffffffffffffffffffffffffffffffffffffff16815260200190815260200160002060000160009054906101000a900460ff16610203576040517f08c379a00000000000000000000000000000000000000000000000000000000081526004016101fa90610e59565b60405180910390fd5b600260003373ffffffffffffffffffffffffffffffffffffffff1673ffffffffffffffffffffffffffffffffffffffff16815260200190815260200160002060000160019054906101000a900460ff1615610293576040517f08c379a000000000000000000000000000000000000000000000000000000000815260040161028a90610ec5565b60405180910390fd5b7f00000000000000000000000000000000000000000000000000000000000000004211156102f6576040517f08c379a00000000000000000000000000000000000000000000000000000000081526004016102ed90610f31565b60405180910390fd5b6001818154811061030a57610309610f51565b5b9060005260206000209060020201600001600081819054906101000a900462ffffff168092919061033a90610faf565b91906101000a81548162ffffff021916908362ffffff160217905550506001600260003373ffffffffffffffffffffffffffffffffffffffff1673ffffffffffffffffffffffffffffffffffffffff16815260200190815260200160002060000160016101000a81548160ff02191690831515021790555050565b60606001805480602002602001604051908101604052809291908181526020016000905b828210156104c057838290600052602060002090600202016040518060400160405290816000820160009054906101000a900462ffffff1662ffffff1662ffffff16815260200160018201805461042f9061100a565b80601f016020809104026020016040519081016040528092919081815260200182805461045b9061100a565b80156104a85780601f1061047d576101008083540402835291602001916104a8565b820191906000526020600020905b81548152906001019060200180831161048b57829003601f168201915b505050505081525050815260200190600101906103d9565b50505050905090565b6060600080600190505b60018054905081101561056f57600182815481106104f4576104f3610f51565b5b906000526020600020906002020160000160009054906101000a900462ffffff1662ffffff166001828154811061052e5761052d610f51565b5b906000526020600020906002020160000160009054906101000a900462ffffff1662ffffff16111561055e578091505b806105689061103c565b90506104d3565b506001818154811061058457610583610f51565b5b906000526020600020906002020160010180546105a09061100a565b80601f01602080910402602001604051908101604052809291908181526020018280546105cc9061100a565b80156106195780601f106105ee57610100808354040283529160200191610619565b820191906000526020600020905b8154815290600101906020018083116105fc57829003601f168201915b505050505091505090565b61062c6109ab565b600182815481106106405761063f610f51565b5b90600052602060002090600202016040518060400160405290816000820160009054906101000a900462ffffff1662ffffff1662ffffff16815260200160018201805461068c9061100a565b80601f01602080910402602001604051908101604052809291908181526020018280546106b89061100a565b80156107055780601f106106da57610100808354040283529160200191610705565b820191906000526020600020905b8154815290600101906020018083116106e857829003601f168201915b5050505050815250509050919050565b60007f0000000000000000000000000000000000000000000000000000000000000000905090565b60008054906101000a900473ffffffffffffffffffffffffffffffffffffffff1673ffffffffffffffffffffffffffffffffffffffff163373ffffffffffffffffffffffffffffffffffffffff16146107cb576040517f08c379a00000000000000000000000000000000000000000000000000000000081526004016107c2906110f7565b60405180910390fd5b7f000000000000000000000000000000000000000000000000000000000000000042111561082e576040517f08c379a000000000000000000000000000000000000000000000000000000000815260040161082590610f31565b60405180910390fd5b600260008273ffffffffffffffffffffffffffffffffffffffff1673ffffffffffffffffffffffffffffffffffffffff16815260200190815260200160002060000160009054906101000a900460ff16156108be576040517f08c379a00000000000000000000000000000000000000000000000000000000081526004016108b590611163565b60405180910390fd5b6001600260008373ffffffffffffffffffffffffffffffffffffffff1673ffffffffffffffffffffffffffffffffffffffff16815260200190815260200160002060000160006101000a81548160ff02191690831515021790555050565b6109246109ca565b600260008373ffffffffffffffffffffffffffffffffffffffff1673ffffffffffffffffffffffffffffffffffffffff1681526020019081526020016000206040518060400160405290816000820160009054906101000a900460ff161515151581526020016000820160019054906101000a900460ff1615151515815250509050919050565b6040518060400160405280600062ffffff168152602001606081525090565b60405180604001604052806000151581526020016000151581525090565b600080fd5b6000819050919050565b610a00816109ed565b8114610a0b57600080fd5b50565b600081359050610a1d816109f7565b92915050565b600060208284031215610a3957610a386109e8565b5b6000610a4784828501610a0e565b91505092915050565b600081519050919050565b600082825260208201905092915050565b6000819050602082019050919050565b600062ffffff82169050919050565b610a9481610a7c565b82525050565b600081519050919050565b600082825260208201905092915050565b60005b83811015610ad4578082015181840152602081019050610ab9565b83811115610ae3576000848401525b50505050565b6000601f19601f8301169050919050565b6000610b0582610a9a565b610b0f8185610aa5565b9350610b1f818560208601610ab6565b610b2881610ae9565b840191505092915050565b6000604083016000830151610b4b6000860182610a8b565b5060208301518482036020860152610b638282610afa565b9150508091505092915050565b6000610b7c8383610b33565b905092915050565b6000602082019050919050565b6000610b9c82610a50565b610ba68185610a5b565b935083602082028501610bb885610a6c565b8060005b85811015610bf45784840389528151610bd58582610b70565b9450610be083610b84565b925060208a01995050600181019050610bbc565b50829750879550505050505092915050565b60006020820190508181036000830152610c208184610b91565b905092915050565b600082825260208201905092915050565b6000610c4482610a9a565b610c4e8185610c28565b9350610c5e818560208601610ab6565b610c6781610ae9565b840191505092915050565b60006020820190508181036000830152610c8c8184610c39565b905092915050565b6000604083016000830151610cac6000860182610a8b565b5060208301518482036020860152610cc48282610afa565b9150508091505092915050565b60006020820190508181036000830152610ceb8184610c94565b905092915050565b610cfc816109ed565b82525050565b6000602082019050610d176000830184610cf3565b92915050565b600073ffffffffffffffffffffffffffffffffffffffff82169050919050565b6000610d4882610d1d565b9050919050565b610d5881610d3d565b8114610d6357600080fd5b50565b600081359050610d7581610d4f565b92915050565b600060208284031215610d9157610d906109e8565b5b6000610d9f84828501610d66565b91505092915050565b60008115159050919050565b610dbd81610da8565b82525050565b604082016000820151610dd96000850182610db4565b506020820151610dec6020850182610db4565b50505050565b6000604082019050610e076000830184610dc3565b92915050565b7f596f7520417265204e6f7420416c6c6f77656420546f20566f74650000000000600082015250565b6000610e43601b83610c28565b9150610e4e82610e0d565b602082019050919050565b60006020820190508181036000830152610e7281610e36565b9050919050565b7f596f7520416c726561647920566f746564000000000000000000000000000000600082015250565b6000610eaf601183610c28565b9150610eba82610e79565b602082019050919050565b60006020820190508181036000830152610ede81610ea2565b9050919050565b7f566f74696e6720506572696f6420486173204265656e20457863656564656400600082015250565b6000610f1b601f83610c28565b9150610f2682610ee5565b602082019050919050565b60006020820190508181036000830152610f4a81610f0e565b9050919050565b7f4e487b7100000000000000000000000000000000000000000000000000000000600052603260045260246000fd5b7f4e487b7100000000000000000000000000000000000000000000000000000000600052601160045260246000fd5b6000610fba82610a7c565b915062ffffff821415610fd057610fcf610f80565b5b600182019050919050565b7f4e487b7100000000000000000000000000000000000000000000000000000000600052602260045260246000fd5b6000600282049050600182168061102257607f821691505b6020821081141561103657611035610fdb565b5b50919050565b6000611047826109ed565b91507fffffffffffffffffffffffffffffffffffffffffffffffffffffffffffffffff82141561107a57611079610f80565b5b600182019050919050565b7f4f6e6c7920546865204f776e657220497320416c6c6f77656420546f2050657260008201527f666f726d2054686973204f7065726174696f6e00000000000000000000000000602082015250565b60006110e1603383610c28565b91506110ec82611085565b604082019050919050565b60006020820190508181036000830152611110816110d4565b9050919050565b7f5573657220416c72656164792041646465640000000000000000000000000000600082015250565b600061114d601283610c28565b915061115882611117565b602082019050919050565b6000602082019050818103600083015261117c81611140565b905091905056fea2646970667358221220029a7833f4cc8c657c4314d9470c9d49ae4b51ef487247339a6fe104dc4a495764736f6c634300080a0033",
  "immutableReferences": {
    "5": [
      {
        "length": 32,
        "start": 661
      },
      {
        "length": 32,
        "start": 1817
      },
      {
        "length": 32,
        "start": 1997
      }
    ]
  },
  "source": "//SPDX-License-Identifier: MIT\r\n\r\npragma solidity ^0.8.8;\r\n\r\ncontract Dvoting {\r\n    address private s_owner;\r\n    uint256 private immutable i_votingPeriod;\r\n    //uint24 private  s_latestId = 1;\r\n\r\n    struct candidate {\r\n        uint24 votesCount;\r\n        string name;\r\n    }\r\n\r\n    candidate[] private s_candidates; //TODO: make it immutable later\r\n\r\n    struct voter {\r\n        // uint24 voterId;\r\n        bool registered;\r\n        bool voted;\r\n    }\r\n\r\n    //voter[] public s_voters;\r\n    mapping(address => voter) s_voters;\r\n\r\n    //TODO: remove the comments when deploying in localhost\r\n    constructor(\r\n        uint256 _votingDays /*,candidate[] memory _candidates*/\r\n    ) {\r\n        s_owner = msg.sender;\r\n        i_votingPeriod = block.timestamp + (_votingDays * 1 days);\r\n\r\n        //s_candidates=_candidates;\r\n\r\n        //TODO:remove the following lines, its for testing\r\n        s_candidates.push(candidate(0, \"Aws Rayyan\"));\r\n        s_candidates.push(candidate(0, \"Mahmood Atari\"));\r\n        s_candidates.push(candidate(0, \"Aws Al Masri\"));\r\n        s_candidates.push(candidate(0, \"Mr White\"));\r\n    }\r\n\r\n    modifier onlyOwner() {\r\n        require(\r\n            msg.sender == s_owner,\r\n            \"Only The Owner Is Allowed To Perform This Operation\"\r\n        );\r\n        _;\r\n    }\r\n\r\n    modifier withinVotingPeriod() {\r\n        require(\r\n            block.timestamp <= i_votingPeriod,\r\n            \"Voting Period Has Been Exceeded\"\r\n        );\r\n        _;\r\n    }\r\n\r\n    modifier allowedToVote() {\r\n        // require(s_voters[msg.sender].voterId != 0,\"You Are Not Allowed To Vote\");\r\n        require(s_voters[msg.sender].registered, \"You Are Not Allowed To Vote\");\r\n\r\n        require(!s_voters[msg.sender].voted, \"You Already Voted\");\r\n        _;\r\n    }\r\n\r\n    function permitToVote(address _voter) public onlyOwner withinVotingPeriod {\r\n        //require(s_voters[_voter].voterId == 0,\"User Already Added\");\r\n        require(!s_voters[_voter].registered, \"User Already Added\");\r\n\r\n        s_voters[_voter].registered = true;\r\n        //s_latestId ++;\r\n    }\r\n\r\n    function vote(uint256 _candidateId)\r\n        public\r\n        allowedToVote\r\n        withinVotingPeriod\r\n    {\r\n        s_candidates[_candidateId].votesCount++;\r\n        s_voters[msg.sender].voted = true;\r\n    }\r\n\r\n    /*Pure And View Functions*/\r\n\r\n    function getVotingPeriod() external view returns (uint256) {\r\n        return i_votingPeriod;\r\n    }\r\n\r\n    function getCandidates() external view returns (candidate[] memory) {\r\n        return s_candidates;\r\n    }\r\n\r\n    function getCandidate(uint256 _candidateId)\r\n        external\r\n        view\r\n        returns (candidate memory)\r\n    {\r\n        return s_candidates[_candidateId];\r\n    }\r\n\r\n    function getVoter(address _voterAddress)\r\n        external\r\n        view\r\n        returns (voter memory)\r\n    {\r\n        return s_voters[_voterAddress];\r\n    }\r\n\r\n    function getWinnerCandidate() external view returns (string memory) {\r\n        uint256 winnerID = 0;\r\n\r\n        for (uint256 i = 1; i < s_candidates.length; ++i) {\r\n            if (\r\n                s_candidates[i].votesCount > s_candidates[winnerID].votesCount\r\n            ) {\r\n                winnerID = i;\r\n            }\r\n        }\r\n\r\n        return s_candidates[winnerID].name;\r\n    }\r\n}\r\n",
  "sourcePath": "C:\\Users\\LENOVO\\Desktop\\GraduationProject\\truffleDeploy\\contracts\\Dvoting.sol",
  "compiler": {
    "name": "solc",
    "version": "0.8.10+commit.fc410830.Emscripten.clang"
  },
  "schemaVersion": "3.4.6",
  "updatedAt": "2022-11-14T18:45:51.467Z",
  "networkType": "ethereum",
  "devdoc": {
    "kind": "dev",
    "methods": {},
    "version": 1
  },
  "userdoc": {
    "kind": "user",
    "methods": {},
    "version": 1
  }
}