{
  "contractName": "Dvoting",
  "abi": [
    {
      "inputs": [
        {
          "internalType": "uint256",
          "name": "_votingDays",
          "type": "uint256"
        },
        {
          "internalType": "string[]",
          "name": "_candidates",
          "type": "string[]"
        }
      ],
      "stateMutability": "nonpayable",
      "type": "constructor"
    },
    {
      "inputs": [
        {
          "internalType": "address",
          "name": "_voter",
          "type": "address"
        }
      ],
      "name": "permitToVote",
      "outputs": [],
      "stateMutability": "nonpayable",
      "type": "function"
    },
    {
      "inputs": [
        {
          "internalType": "address",
          "name": "_voter",
          "type": "address"
        }
      ],
      "name": "removePermission",
      "outputs": [],
      "stateMutability": "nonpayable",
      "type": "function"
    },
    {
      "inputs": [
        {
          "internalType": "address",
          "name": "_newOwner",
          "type": "address"
        }
      ],
      "name": "transferOwnership",
      "outputs": [],
      "stateMutability": "nonpayable",
      "type": "function"
    },
    {
      "inputs": [
        {
          "internalType": "uint256",
          "name": "_candidateId",
          "type": "uint256"
        }
      ],
      "name": "vote",
      "outputs": [],
      "stateMutability": "nonpayable",
      "type": "function"
    },
    {
      "inputs": [],
      "name": "getVotingPeriod",
      "outputs": [
        {
          "internalType": "uint256",
          "name": "",
          "type": "uint256"
        }
      ],
      "stateMutability": "view",
      "type": "function",
      "constant": true
    },
    {
      "inputs": [],
      "name": "getCandidates",
      "outputs": [
        {
          "components": [
            {
              "internalType": "uint24",
              "name": "votesCount",
              "type": "uint24"
            },
            {
              "internalType": "string",
              "name": "name",
              "type": "string"
            }
          ],
          "internalType": "struct Dvoting.candidate[]",
          "name": "",
          "type": "tuple[]"
        }
      ],
      "stateMutability": "view",
      "type": "function",
      "constant": true
    },
    {
      "inputs": [
        {
          "internalType": "uint256",
          "name": "_candidateId",
          "type": "uint256"
        }
      ],
      "name": "getCandidate",
      "outputs": [
        {
          "components": [
            {
              "internalType": "uint24",
              "name": "votesCount",
              "type": "uint24"
            },
            {
              "internalType": "string",
              "name": "name",
              "type": "string"
            }
          ],
          "internalType": "struct Dvoting.candidate",
          "name": "",
          "type": "tuple"
        }
      ],
      "stateMutability": "view",
      "type": "function",
      "constant": true
    }
  ],
  "bytecode": "0x60a06040523480156200001157600080fd5b5060405162001908380380620019088339818101604052810190620000379190620004f5565b336000806101000a81548173ffffffffffffffffffffffffffffffffffffffff021916908373ffffffffffffffffffffffffffffffffffffffff16021790555062015180826200008891906200058a565b42620000959190620005eb565b6080818152505060005b8151811015620001685760016040518060400160405280600062ffffff168152602001848481518110620000d857620000d762000648565b5b6020026020010151815250908060018154018082558091505060019003906000526020600020906002020160009091909190915060008201518160000160006101000a81548162ffffff021916908362ffffff16021790555060208201518160010190805190602001906200014f92919062000171565b50505080806200015f9062000677565b9150506200009f565b5050506200072a565b8280546200017f90620006f4565b90600052602060002090601f016020900481019282620001a35760008555620001ef565b82601f10620001be57805160ff1916838001178555620001ef565b82800160010185558215620001ef579182015b82811115620001ee578251825591602001919060010190620001d1565b5b509050620001fe919062000202565b5090565b5b808211156200021d57600081600090555060010162000203565b5090565b6000604051905090565b600080fd5b600080fd5b6000819050919050565b6200024a8162000235565b81146200025657600080fd5b50565b6000815190506200026a816200023f565b92915050565b600080fd5b6000601f19601f8301169050919050565b7f4e487b7100000000000000000000000000000000000000000000000000000000600052604160045260246000fd5b620002c08262000275565b810181811067ffffffffffffffff82111715620002e257620002e162000286565b5b80604052505050565b6000620002f762000221565b9050620003058282620002b5565b919050565b600067ffffffffffffffff82111562000328576200032762000286565b5b602082029050602081019050919050565b600080fd5b600080fd5b600067ffffffffffffffff82111562000361576200036062000286565b5b6200036c8262000275565b9050602081019050919050565b60005b83811015620003995780820151818401526020810190506200037c565b83811115620003a9576000848401525b50505050565b6000620003c6620003c08462000343565b620002eb565b905082815260208101848484011115620003e557620003e46200033e565b5b620003f284828562000379565b509392505050565b600082601f83011262000412576200041162000270565b5b815162000424848260208601620003af565b91505092915050565b6000620004446200043e846200030a565b620002eb565b905080838252602082019050602084028301858111156200046a576200046962000339565b5b835b81811015620004b857805167ffffffffffffffff81111562000493576200049262000270565b5b808601620004a28982620003fa565b855260208501945050506020810190506200046c565b5050509392505050565b600082601f830112620004da57620004d962000270565b5b8151620004ec8482602086016200042d565b91505092915050565b600080604083850312156200050f576200050e6200022b565b5b60006200051f8582860162000259565b925050602083015167ffffffffffffffff81111562000543576200054262000230565b5b6200055185828601620004c2565b9150509250929050565b7f4e487b7100000000000000000000000000000000000000000000000000000000600052601160045260246000fd5b6000620005978262000235565b9150620005a48362000235565b9250817fffffffffffffffffffffffffffffffffffffffffffffffffffffffffffffffff0483118215151615620005e057620005df6200055b565b5b828202905092915050565b6000620005f88262000235565b9150620006058362000235565b9250827fffffffffffffffffffffffffffffffffffffffffffffffffffffffffffffffff038211156200063d576200063c6200055b565b5b828201905092915050565b7f4e487b7100000000000000000000000000000000000000000000000000000000600052603260045260246000fd5b6000620006848262000235565b91507fffffffffffffffffffffffffffffffffffffffffffffffffffffffffffffffff821415620006ba57620006b96200055b565b5b600182019050919050565b7f4e487b7100000000000000000000000000000000000000000000000000000000600052602260045260246000fd5b600060028204905060018216806200070d57607f821691505b60208210811415620007245762000723620006c5565b5b50919050565b6080516111ad6200075b6000396000818161027f015281816105a80152818161065c015261083b01526111ad6000f3fe608060405234801561001057600080fd5b506004361061007d5760003560e01c80633ecc6a431161005b5780633ecc6a43146100ec57806382d21f021461010a578063e074bb4714610126578063f2fde38b146101425761007d565b80630121b93f1461008257806306a49fce1461009e57806335b8e820146100bc575b600080fd5b61009c60048036038101906100979190610ab4565b61015e565b005b6100a661039f565b6040516100b39190610c97565b60405180910390f35b6100d660048036038101906100d19190610ab4565b6104b3565b6040516100e39190610cf6565b60405180910390f35b6100f46105a4565b6040516101019190610d27565b60405180910390f35b610124600480360381019061011f9190610da0565b6105cc565b005b610140600480360381019061013b9190610da0565b6107ab565b005b61015c60048036038101906101579190610da0565b610989565b005b600260003373ffffffffffffffffffffffffffffffffffffffff1673ffffffffffffffffffffffffffffffffffffffff16815260200190815260200160002060000160009054906101000a900460ff166101ed576040517f08c379a00000000000000000000000000000000000000000000000000000000081526004016101e490610e2a565b60405180910390fd5b600260003373ffffffffffffffffffffffffffffffffffffffff1673ffffffffffffffffffffffffffffffffffffffff16815260200190815260200160002060000160019054906101000a900460ff161561027d576040517f08c379a000000000000000000000000000000000000000000000000000000000815260040161027490610e96565b60405180910390fd5b7f00000000000000000000000000000000000000000000000000000000000000004211156102e0576040517f08c379a00000000000000000000000000000000000000000000000000000000081526004016102d790610f02565b60405180910390fd5b6001600260003373ffffffffffffffffffffffffffffffffffffffff1673ffffffffffffffffffffffffffffffffffffffff16815260200190815260200160002060000160016101000a81548160ff0219169083151502179055506001818154811061034f5761034e610f22565b5b9060005260206000209060020201600001600081819054906101000a900462ffffff168092919061037f90610f80565b91906101000a81548162ffffff021916908362ffffff1602179055505050565b60606001805480602002602001604051908101604052809291908181526020016000905b828210156104aa57838290600052602060002090600202016040518060400160405290816000820160009054906101000a900462ffffff1662ffffff1662ffffff16815260200160018201805461041990610fdb565b80601f016020809104026020016040519081016040528092919081815260200182805461044590610fdb565b80156104925780601f1061046757610100808354040283529160200191610492565b820191906000526020600020905b81548152906001019060200180831161047557829003601f168201915b505050505081525050815260200190600101906103c3565b50505050905090565b6104bb610a5a565b600182815481106104cf576104ce610f22565b5b90600052602060002090600202016040518060400160405290816000820160009054906101000a900462ffffff1662ffffff1662ffffff16815260200160018201805461051b90610fdb565b80601f016020809104026020016040519081016040528092919081815260200182805461054790610fdb565b80156105945780601f1061056957610100808354040283529160200191610594565b820191906000526020600020905b81548152906001019060200180831161057757829003601f168201915b5050505050815250509050919050565b60007f0000000000000000000000000000000000000000000000000000000000000000905090565b60008054906101000a900473ffffffffffffffffffffffffffffffffffffffff1673ffffffffffffffffffffffffffffffffffffffff163373ffffffffffffffffffffffffffffffffffffffff161461065a576040517f08c379a00000000000000000000000000000000000000000000000000000000081526004016106519061107f565b60405180910390fd5b7f00000000000000000000000000000000000000000000000000000000000000004211156106bd576040517f08c379a00000000000000000000000000000000000000000000000000000000081526004016106b490610f02565b60405180910390fd5b600260008273ffffffffffffffffffffffffffffffffffffffff1673ffffffffffffffffffffffffffffffffffffffff16815260200190815260200160002060000160009054906101000a900460ff161561074d576040517f08c379a0000000000000000000000000000000000000000000000000000000008152600401610744906110eb565b60405180910390fd5b6001600260008373ffffffffffffffffffffffffffffffffffffffff1673ffffffffffffffffffffffffffffffffffffffff16815260200190815260200160002060000160006101000a81548160ff02191690831515021790555050565b60008054906101000a900473ffffffffffffffffffffffffffffffffffffffff1673ffffffffffffffffffffffffffffffffffffffff163373ffffffffffffffffffffffffffffffffffffffff1614610839576040517f08c379a00000000000000000000000000000000000000000000000000000000081526004016108309061107f565b60405180910390fd5b7f000000000000000000000000000000000000000000000000000000000000000042111561089c576040517f08c379a000000000000000000000000000000000000000000000000000000000815260040161089390610f02565b60405180910390fd5b600260008273ffffffffffffffffffffffffffffffffffffffff1673ffffffffffffffffffffffffffffffffffffffff16815260200190815260200160002060000160009054906101000a900460ff1661092b576040517f08c379a000000000000000000000000000000000000000000000000000000000815260040161092290611157565b60405180910390fd5b6000600260008373ffffffffffffffffffffffffffffffffffffffff1673ffffffffffffffffffffffffffffffffffffffff16815260200190815260200160002060000160006101000a81548160ff02191690831515021790555050565b60008054906101000a900473ffffffffffffffffffffffffffffffffffffffff1673ffffffffffffffffffffffffffffffffffffffff163373ffffffffffffffffffffffffffffffffffffffff1614610a17576040517f08c379a0000000000000000000000000000000000000000000000000000000008152600401610a0e9061107f565b60405180910390fd5b806000806101000a81548173ffffffffffffffffffffffffffffffffffffffff021916908373ffffffffffffffffffffffffffffffffffffffff16021790555050565b6040518060400160405280600062ffffff168152602001606081525090565b600080fd5b6000819050919050565b610a9181610a7e565b8114610a9c57600080fd5b50565b600081359050610aae81610a88565b92915050565b600060208284031215610aca57610ac9610a79565b5b6000610ad884828501610a9f565b91505092915050565b600081519050919050565b600082825260208201905092915050565b6000819050602082019050919050565b600062ffffff82169050919050565b610b2581610b0d565b82525050565b600081519050919050565b600082825260208201905092915050565b60005b83811015610b65578082015181840152602081019050610b4a565b83811115610b74576000848401525b50505050565b6000601f19601f8301169050919050565b6000610b9682610b2b565b610ba08185610b36565b9350610bb0818560208601610b47565b610bb981610b7a565b840191505092915050565b6000604083016000830151610bdc6000860182610b1c565b5060208301518482036020860152610bf48282610b8b565b9150508091505092915050565b6000610c0d8383610bc4565b905092915050565b6000602082019050919050565b6000610c2d82610ae1565b610c378185610aec565b935083602082028501610c4985610afd565b8060005b85811015610c855784840389528151610c668582610c01565b9450610c7183610c15565b925060208a01995050600181019050610c4d565b50829750879550505050505092915050565b60006020820190508181036000830152610cb18184610c22565b905092915050565b6000604083016000830151610cd16000860182610b1c565b5060208301518482036020860152610ce98282610b8b565b9150508091505092915050565b60006020820190508181036000830152610d108184610cb9565b905092915050565b610d2181610a7e565b82525050565b6000602082019050610d3c6000830184610d18565b92915050565b600073ffffffffffffffffffffffffffffffffffffffff82169050919050565b6000610d6d82610d42565b9050919050565b610d7d81610d62565b8114610d8857600080fd5b50565b600081359050610d9a81610d74565b92915050565b600060208284031215610db657610db5610a79565b5b6000610dc484828501610d8b565b91505092915050565b600082825260208201905092915050565b7f596f7520417265204e6f7420416c6c6f77656420546f20566f74650000000000600082015250565b6000610e14601b83610dcd565b9150610e1f82610dde565b602082019050919050565b60006020820190508181036000830152610e4381610e07565b9050919050565b7f596f7520416c726561647920566f746564000000000000000000000000000000600082015250565b6000610e80601183610dcd565b9150610e8b82610e4a565b602082019050919050565b60006020820190508181036000830152610eaf81610e73565b9050919050565b7f566f74696e6720506572696f6420486173204265656e20457863656564656400600082015250565b6000610eec601f83610dcd565b9150610ef782610eb6565b602082019050919050565b60006020820190508181036000830152610f1b81610edf565b9050919050565b7f4e487b7100000000000000000000000000000000000000000000000000000000600052603260045260246000fd5b7f4e487b7100000000000000000000000000000000000000000000000000000000600052601160045260246000fd5b6000610f8b82610b0d565b915062ffffff821415610fa157610fa0610f51565b5b600182019050919050565b7f4e487b7100000000000000000000000000000000000000000000000000000000600052602260045260246000fd5b60006002820490506001821680610ff357607f821691505b6020821081141561100757611006610fac565b5b50919050565b7f4f6e6c7920546865204f776e657220497320416c6c6f77656420546f2050657260008201527f666f726d2054686973204f7065726174696f6e00000000000000000000000000602082015250565b6000611069603383610dcd565b91506110748261100d565b604082019050919050565b600060208201905081810360008301526110988161105c565b9050919050565b7f5573657220416c72656164792041646465640000000000000000000000000000600082015250565b60006110d5601283610dcd565b91506110e08261109f565b602082019050919050565b60006020820190508181036000830152611104816110c8565b9050919050565b7f5573657220486173204e6f74204265656e204164646564000000000000000000600082015250565b6000611141601783610dcd565b915061114c8261110b565b602082019050919050565b6000602082019050818103600083015261117081611134565b905091905056fea264697066735822122084c4ead01951796218f8a9ead956ab6a67f9939c6fa25a122fd03d7fee256f2764736f6c634300080a0033",
  "immutableReferences": {
    "5": [
      {
        "length": 32,
        "start": 639
      },
      {
        "length": 32,
        "start": 1448
      },
      {
        "length": 32,
        "start": 1628
      },
      {
        "length": 32,
        "start": 2107
      }
    ]
  },
  "source": "//SPDX-License-Identifier: UNLICENSED\r\n\r\npragma solidity ^0.8.8;\r\n\r\ncontract Dvoting {\r\n    address private s_owner;\r\n    uint256 private immutable i_votingPeriod;\r\n\r\n    struct candidate {\r\n        uint24 votesCount;\r\n        string name;\r\n    }\r\n\r\n     candidate[]  private s_candidates;\r\n\r\n    struct voter {\r\n        bool registered;\r\n        bool voted;\r\n    }\r\n\r\n    mapping(address => voter) s_voters;\r\n\r\n\r\n    constructor(\r\n        uint256 _votingDays ,string[] memory _candidates\r\n    ) {\r\n        s_owner = msg.sender;\r\n        i_votingPeriod = block.timestamp + (_votingDays * 1 days);\r\n\r\n        for(uint i=0;i<_candidates.length;i++){\r\n            s_candidates.push(candidate(0, _candidates[i]));\r\n        }          \r\n    }\r\n\r\n    //Modifiers\r\n    modifier onlyOwner() {\r\n        require(\r\n            msg.sender == s_owner,\r\n            \"Only The Owner Is Allowed To Perform This Operation\"\r\n        );\r\n        _;\r\n    }\r\n\r\n    modifier withinVotingPeriod() {\r\n        require(\r\n            block.timestamp <= i_votingPeriod,\r\n            \"Voting Period Has Been Exceeded\"\r\n        );\r\n        _;\r\n    }\r\n\r\n    modifier allowedToVote() {   \r\n        require(s_voters[msg.sender].registered, \"You Are Not Allowed To Vote\");\r\n        require(!s_voters[msg.sender].voted, \"You Already Voted\");\r\n        _;\r\n    }\r\n\r\n\r\n    //Owners functions\r\n    function permitToVote(address _voter) public onlyOwner withinVotingPeriod {\r\n        require(!s_voters[_voter].registered, \"User Already Added\");\r\n        s_voters[_voter].registered = true;\r\n    }\r\n\r\n    function removePermission(address _voter) public onlyOwner withinVotingPeriod {     \r\n        require(s_voters[_voter].registered, \"User Has Not Been Added\");\r\n        s_voters[_voter].registered = false;\r\n    }\r\n\r\n     function transferOwnership(address _newOwner)public onlyOwner {\r\n         s_owner = _newOwner;\r\n     }\r\n\r\n\r\n    //public functions\r\n    function vote(uint256 _candidateId) public allowedToVote withinVotingPeriod\r\n    {\r\n        s_voters[msg.sender].voted = true;\r\n        s_candidates[_candidateId].votesCount++; \r\n    }\r\n\r\n    /*Pure And View Functions*/\r\n    function getVotingPeriod() external view returns (uint256) {\r\n        return i_votingPeriod;\r\n    }\r\n\r\n    function getCandidates() external view returns (candidate[] memory) {\r\n        return s_candidates;\r\n    }\r\n\r\n    function getCandidate(uint256 _candidateId) external view returns (candidate memory)\r\n    {\r\n        return s_candidates[_candidateId];\r\n    }\r\n   \r\n}\r\n",
  "sourcePath": "C:\\Users\\LENOVO\\Desktop\\GraduationProject\\truffleDeploy\\contracts\\Dvoting.sol",
  "compiler": {
    "name": "solc",
    "version": "0.8.10+commit.fc410830.Emscripten.clang"
  },
  "schemaVersion": "3.4.6",
  "updatedAt": "2023-01-19T20:18:19.423Z",
  "networkType": "ethereum",
  "devdoc": {
    "kind": "dev",
    "methods": {},
    "version": 1
  },
  "userdoc": {
    "kind": "user",
    "methods": {},
    "version": 1
  }
}